:100000000C9423020C94D81B0C9440020C944002D4
:100010000C9440020C9440020C9440020C94400258
:100020000C9440020C9440020C9440020C94400248
:100030000C9440020C9440020C9440020C94400238
:100040000C948E1B0C9440020C9440020C944002C1
:100050000C9440020C9440020C9440020C94400218
:100060000C9440020C944002200020000FED03216C
:10007000534449534B494920434647004E6F205350
:100080004420696E7365727465640046415431366C
:1000900000464154333200547970653A2000436F72
:1000A00064653A2000534420426C6F636B204552D4
:1000B000524F52004D697373696E67204D42522052
:1000C000202000436C7573746572203C2033326BC2
:1000D00042004E6F742046415431362F3332202077
:1000E00000426F6F7420736563746F72202020006C
:1000F00053442063616E277420696E697420005335
:10010000442063616E27742069646C65200045207B
:10011000522052204F2052004E6F726D616C20535E
:1001200044206361726400202020534448432063CC
:1001300061726420200020536F7274696E672066BC
:10014000696C657300204E6F7468696E672068651E
:1001500072652100204275696C64696E67206C6964
:100160007374002053454C454354204E494320208E
:100170002000547261636B3A2000205344204445B0
:100180004C4159202020202000204C434420434F44
:100190004E545241535420002056616C75653A20EC
:1001A000002053657420636F6E7472617374200055
:1001B000205365742053442064656C6179200020CD
:1001C000202020202020202020202020200020531C
:1001D00045545550202020202020202000204E492A
:1001E000432020202020202020202000762E203593
:1001F0002E3520283230323029004170706C652055
:100200005D5B202D20425200534469736B205D5B7F
:100210000008141C1C1C1C1C1C366363220000FFFD
:10022000FFF7E3E3F7FFFD00000074325242424261
:100230004A4C2E00000000000402FF0204000000EF
:10024000000000002040FF402000000000000020CF
:1002500070A82020203F0000000000FE82828284DF
:1002600084FC000000000000000000005F000000AF
:1002700007000700147F147F14242A7F2A122313F7
:1002800008646236495522500005030000001C2214
:1002900041000041221C0014083E081408083E08D2
:1002A00008005030000008080808080060600000DE
:1002B00020100804023E5149453E00427F40004262
:1002C000615149462141454B311814127F10274591
:1002D0004545393C4A4949300171090503364949C8
:1002E0004936064949291E003636000000563600B8
:1002F000000814224100141414141400412214089C
:100300000201510906324979413E7E1111117E7F69
:10031000494949363E414141227F4141221C7F49A2
:100320004949417F090909013E4149497A7F080845
:10033000087F00417F41002040413F017F08142297
:10034000417F404040407F020C027F7F0408107FC5
:100350003E4141413E7F090909063E4151215E7FF0
:1003600009192946464949493101017F01013F40A8
:1003700040403F1F2040201F3F4038403F6314084B
:10038000146307087008076151494543007F4141E4
:100390000002040810200041417F00040201020411
:1003A0004040404040000102040020545454787FF3
:1003B000484444383844444420384444487F3854FE
:1003C000545418087E0901020C5252523E7F080410
:1003D000047800447D40002040443D007F102844C4
:1003E0000000417F40007C041804787C08040478F5
:1003F00038444444387C14141408081414187C7CC1
:10040000080404084854545420043F4440203C400D
:1004100040207C1C2040201C3C4030403C442810A4
:1004200028440C5050503C4464544C44000836411D
:100430000000007F00000041360800100808100886
:1004400000060909060011241FBECFEFD8E0DEBF69
:10045000CDBF11E0A0E0B1E0EEEAFCE302C0059000
:100460000D92A630B107D9F726E0A6E0B1E001C0B1
:100470001D92A63FB207E1F70E943C1C0C94551E4A
:100480000C9400000E94431461E08FE00E9450141D
:100490008EE091E00E94761563E080E00E945014A7
:1004A0008CE790E00E9476154B99FECF0895CF938C
:1004B000C82F14B817B81AB815B818B81BB8249AAA
:1004C0002C9A399A3B9A419A17BC14BC81E085BD9D
:1004D00092E095BF90936900109293061092D00617
:1004E0001092CF061092CE061092920610929106AC
:1004F000109299068093A3061092A2061092100102
:100500001092180189E191E09093A5068093A406CA
:1005100080E090E00E943F1E823018F4809398069D
:1005200007C01092980660E080E090E00E94471EAD
:10053000CC2359F10E9434140E94431460E080E0FF
:100540000E9450140E945D1461E082E10E945014E8
:1005500088E092E00E94761562E083E00E945014E9
:100560008AEF91E00E94761564E083E00E945014C7
:100570008CEE91E00E9476152FED80E792E72150F6
:1005800080409040E1F700C00000CF9108951F9394
:10059000CF93DF93182FD62FC42F65E080E00E9401
:1005A00050140E9495158FEB91E00E94761565E03E
:1005B00080E00E945014812F90E00E94901465E02A
:1005C00084E20E9450148D2F90E00E94901465E008
:1005D00087E40E9450148C2F90E00E949014DF91C9
:1005E000CF911F910C949515FC01892B89F0808186
:1005F000882379F0853E61F08F3551F080858E3407
:1006000039F48185893421F481E09285933409F0AD
:1006100080E00895FC01892B59F08081882349F0FE
:10062000853E31F08F3521F0838582958170089564
:1006300080E00895CF92DF92EF92FF920F931F9385
:10064000CF93DF938FEF9FEF909301018093000191
:100650000E94D7196B017C01672B682B692BD9F19C
:1006600080E090E00E94081B00E010E0C8010E94BA
:10067000641AEC01892B49F18881853E11F08111C2
:1006800024C08B858F3009F1109301010093000184
:1006900060E770E0CE010E94A31D81E08B87FD8A98
:1006A000EC8ADB8ECA8E6091D6067091D706809157
:1006B000D8069091D906DF91CF911F910F91FF90AD
:1006C000EF90DF90CF900C9474170F5F1F4F00399D
:1006D00081E0180759F6DF91CF911F910F91FF909C
:1006E000EF90DF90CF9008958F929F92AF92BF923C
:1006F000CF92DF92EF92FF921F93CF93DF93182F49
:10070000D62FC42F862F90E020E1429F800D911DAF
:100710001124FC010090F50602C0F695E7950A94B5
:10072000E2F7EE0FFF1FEE0FFF1FEA55F94F408172
:1007300051816281738122E02BB91BB82091F406AC
:1007400030E02150310982239323C090E106D090FC
:10075000E206E090E306F090E40646015701880EB9
:10076000991EA11CB11C42505109610971090090E8
:10077000F50604C0440F551F661F771F0A94D2F771
:10078000480D591D6A1D7B1D88E10E946D168FEF73
:100790000E94A4158EEF0E94A41580EB90E030E13A
:1007A00020E33BB92BB90197E1F71BB883E00E9426
:1007B000A4158CEF0E94A4158FEF0E94A4158FE35F
:1007C0000E94A4158FEC0E94A41583EF0E94A4152B
:1007D0008CEF0E94A4158FEF0E94A4158FE30E9456
:1007E000A4158FEC0E94A41583EF0E94A4158CEF32
:1007F0000E94A41585ED0E94A4158AEA0E94A41502
:1008000086E90E94A4158FEF0E94A4158EEF0E9426
:10081000A4158C2F86958A6A0E94A4158C2F8A6A4B
:100820000E94A4158D2F86958A6A0E94A4158D2F8B
:100830008A6A0E94A4158EEFD827CD278C2F869523
:100840008A6A0E94A4158C2F8A6A0E94A4158EEDD4
:100850000E94A4158AEA0E94A4158BEE0E94A4159A
:100860008FEF0E94A4158FEF0E94A4158FEF0E94B6
:10087000A4158FEF0E94A4158FEF0E94A4158EE59A
:1008800091E0189FB001199F700D112480E090E055
:1008900050E2A0E1B0E3FB01E80FF91FE75EFE4F75
:1008A000E08128E030E040E8FE2FF42319F0ABB9F6
:1008B000BBB902C01BB85BB9469521503109A1F7FD
:1008C00001968D3521E0920731F71BB880E790E063
:1008D00030E120E33BB92BB90197E1F71BB880E089
:1008E00093E020E21BB82BB90197E1F71BB88FEF1B
:1008F0000E94A4158FEF0E94A4150E94B8150E94B3
:100900007D1882E08BB91BB8DF91CF911F91FF90CA
:10091000EF90DF90CF90BF90AF909F908F90089511
:10092000CF92DF92EF92FF920F931F93CF93DF93BB
:100930004B9935C00CE011E0F80181918F3F59F1DE
:1009400081E1C82E81E0D82E99E1E92E91E0F92EBF
:10095000C0E0DFEFF80160816F3F29F0F6014081D0
:100960008C2F0E947403F801D1938F01F601D1936B
:100970006F01F7011282CF5FF2EAEF1AFEEFFF0A72
:10098000C43041F71092100189E191E09093A506DF
:100990008093A40604C081E0E031F80771F6DF918E
:1009A000CF911F910F91FF90EF90DF90CF9008951E
:1009B000809191069091920680399C40C0F480E12C
:1009C0008BB9809191069091920620E330E18031BD
:1009D00040E1940730F44B990AC02BB93BB901961A
:1009E000F6CF80E99CE0909392068093910608955B
:1009F0004B996EC090911001292F30E04EE551E0E7
:100A0000249FF001259FF00D349FF00D1124E75E27
:100A1000FE4F82818D3A09F042C080911801811108
:100A200031C080919306F901E45FFE4F8083F901A4
:100A3000EF5EFE4F4091A206469546954083282FD3
:100A40002D7F2D3011F48E5F01C08F5F8F708093EA
:100A50009306933029F40E94D8040E9490041CC08D
:100A60009F5F909310014EE551E0949F9001959FF8
:100A7000300D1124C901875E9E4F9093A506809387
:100A8000A4060DC080910A0180939306109218016C
:100A90008F30F1F40E94D80481E08093A306209166
:100AA00010018EE591E0289FF001299FF00D11249F
:100AB000E75EFE4F8281863959F487818575880FFC
:100AC00090859575892B80930A0181E080931801A8
:100AD000089529E131E044E080E090E0F901E80F79
:100AE000F91F108201968E3551E09507B9F74150F4
:100AF000225A3E4F4111F0CF8FEF80931101809326
:100B00000C018093120180930D0180931301809357
:100B10000E018093140180930F010895CF93C82F85
:100B20008FEF9FEF90930101809300010E94651663
:100B300059984B9B03C00E9442024CC089E191E04E
:100B40009093DB068093DA060E94C217811144C09D
:100B50000E94431461E08FE00E9450148EE091E007
:100B60000E94761563E080E00E9450148091D306C5
:100B7000813019F48FEF90E004C0823029F480EFC7
:100B800090E00E94761522C0833019F481EE90E047
:100B9000F8CF843019F482ED90E0F3CF853019F46A
:100BA00083EC90E0EECF863019F484EB90E0E9CF4F
:100BB000873019F485EA90E0E4CF8EE990E00E9456
:100BC00076158091D30690E00E943C151092D006D5
:100BD0004B9BFECF80E0B0C0CC23D9F00E944314E1
:100BE00061E080E00E9450148091DE06823019F4AA
:100BF00087E291E002C088E191E00E947615599861
:100C00002FE38BE49CE4215080409040E1F700C04A
:100C100000000E948418811143C00E94431461E0C7
:100C20008FE00E9450148EE091E00E94761563E000
:100C300080E00E9450148091D306813019F48FEF28
:100C400090E004C0823029F480EF90E00E94761595
:100C500022C0833019F481EE90E0F8CF843019F48B
:100C600082ED90E0F3CF853019F483EC90E0EECF85
:100C7000863019F484EB90E0E9CF873019F485EAE7
:100C800090E0E4CF8EE990E00E9476158091D30643
:100C900090E00E943C151092D0064B9BFECF9ACF5D
:100CA0004091F4062091EE063091EF06429FC0017C
:100CB000439F900D112481159047D0F485E08093D7
:100CC000D3060E94431461E08FE00E9450148EE02E
:100CD00091E00E94761563E080E00E94501483EC5E
:100CE00090E00E9476151092D0064B9BFECF72CFFB
:100CF000CC23E1F064E089E00E94501487E990E0A1
:100D00000E9476158091E5068B3019F481E990E018
:100D100002C08BE890E00E9476158FE39BE42CE400
:100D2000815090402040E1F700C0000059980E9497
:100D300069050E94611681E0CF9108958F929F927C
:100D4000AF92BF92CF92DF92EF92FF920F931F93D9
:100D5000CF93DF936115710519F480E090E055C1E0
:100D60007B01EC010E94431460E080E00E9450147B
:100D70000E948D158DED91E00E94761560E085E36F
:100D80000E9450148091E5068B3019F481E990E0BF
:100D900002C08BE890E00E9476150E948D1542E01B
:100DA00061E080E00E94C70262E080E00E9450148F
:100DB00081E090E00E9490146701570108E0A00EC6
:100DC000B11CF60181916F01803211F00E94E5148F
:100DD000AC14BD04B1F7D0930701C0930601209174
:100DE000E506F701828D938D2B3091F44489558966
:100DF00060E070E0BA0155274427A0E0B0E08A0126
:100E00009B01082B192B2A2B3B2BC901B80103C0CE
:100E1000BC0180E090E0611571058105910509F440
:100E20009CCFE6EAF6E0119211921192119216E02F
:100E3000EE3CF107C1F76093A6067093A706809376
:100E4000A8069093A90611E0663FFFEF7F07810592
:100E50009105A8F40E947119663F2FEF7207810572
:100E6000910558F434E0139FF0011124EA55F94F2D
:100E700060837183828393831F5F1A3028F380908D
:100E8000EA069090EB06A090EC06B090ED068091FB
:100E9000000190910101019609F488C080E090E082
:100EA0000E94081B8FEF9FEFDC018093D606909382
:100EB000D706A093D806B093D906809100019091EF
:100EC00001010E94771BFC012091E506828D938D24
:100ED0002B3071F4C488D588E12CF12C7601DD2407
:100EE000CC24A0E0B0E0C82AD92AEA2AFB2A03C011
:100EF0006C01E12CF12C02E0C01AD108E108F108E4
:100F0000A091F406B0E0A70196010E94981D0091FF
:100F1000E1061091E2062091E3063091E406600FAD
:100F2000711F821F931F0E941D17E091DA06F09136
:100F3000DB068DEC92E0ABEAB1E080839183A28383
:100F4000B38345815681678170858185928584163A
:100F50009506A606B70619F48C179D0731F043874E
:100F6000548765877687908B878785829682A7824C
:100F7000B086D287C1878091D506848380919C06F4
:100F8000818BA091F406B0E0A70196010E94981D04
:100F9000C090E106D090E206E090E306F090E4060F
:100FA0006C0D7D1D8E1D9F1D0E9474178092EA0698
:100FB0009092EB06A092EC06B092ED06109292068B
:100FC000109291061092CF0610929906C1E0C0933C
:100FD000A3061092A206109293061092100110928E
:100FE000180189E191E09093A5068093A406599891
:100FF00040E052E060E070E080E10E94B2160E94A2
:101000006905C093D00681E090E0DF91CF911F91F8
:101010000F91FF90EF90DF90CF90BF90AF909F9097
:101020008F900895CF92DF92EF92FF920F931F93CC
:10103000CF93DF93C090EA06D090EB06E090EC06E9
:10104000F090ED068091000190910101019609F464
:1010500077C080E090E00E94081B8FEF9FEFDC01DB
:101060008093D6069093D706A093D806B093D9065E
:1010700080910001909101010E94771BFC01209159
:10108000E506828D938D2B3079F424893589A90169
:1010900060E070E0BA0155274427A0E0B0E0842B5F
:1010A000952BA62BB72B02C0A0E0B0E09C01AD01B0
:1010B0002250310941095109A091F406B0E00E9483
:1010C000981D0091E1061091E2062091E30630910F
:1010D000E406600F711F821F931F0E941D17E0918D
:1010E000DA06F091DB068FEF9FEFDC018093D606E6
:1010F0009093D706A093D806B093D906838594859C
:10110000A585B6858093EA069093EB06A093EC063E
:10111000B093ED06C785D089CE010E94771B8C0164
:101120000E94F402882361F0B801CE01DF91CF91D3
:101130001F910F91FF90EF90DF90CF900C949E063F
:10114000C092EA06D092EB06E092EC06F092ED0631
:10115000DF91CF911F910F91FF90EF90DF90CF9093
:1011600008955E9A2D9A5F9A08957F928F929F922A
:10117000AF92BF92CF92DF92EF92FF920F931F93A5
:10118000CF93DF938091000190910101019611F4BA
:101190001FEA5BC080E090E00E94081B89E191E0BB
:1011A0009093DB068093DA060E9469051092D606BA
:1011B0001092D7061092D8061092D906809100019D
:1011C000909101010E94771BFC012091E506828D20
:1011D000938D2B3079F424893589A90160E070E082
:1011E000BA0155274427A0E0B0E0482B592B6A2BC1
:1011F0007B2B03C0AC0160E070E0A091F4069A0183
:10120000AB012250310941095109B0E00E94981DFB
:101210000091E1061091E2062091E3063091E40688
:10122000600F711F821F931F0E941D17E091DA0645
:10123000F091DB0680819181A281B3818D3C924047
:10124000AB4AB14009F0A4CF11890E94431460E079
:1012500080E00E9450140E948D1589E891E00E9460
:1012600076150E948D1543E065E084E00E94C70278
:1012700062E080E00E94501488E991E00E947615B7
:10128000812F90E00E943C15712ED12F01E00E9429
:10129000B108D71581F062E080E00E94501488E91F
:1012A00091E00E9476158D2F90E00E943C158AE611
:1012B00090E00E9476154B9972C189B120919806F1
:1012C00041E050E0222311F040E050E093B161E0B2
:1012D00070E0213011F060E070E092959695977083
:1012E000902790FB882480F8912C869EF001879EA1
:1012F000F00D969EF00D1124082E000C990B809590
:1013000090958827990F881F9927849F9001859F22
:10131000300D949F300D11242E2B3F2B232BB9F130
:1013200089B193B1929596959770902790FBAA24D6
:10133000A0F8B12CA69EF001A79EF00DB69EF00D70
:101340001124082E000C990B809590958827990FF1
:10135000881F9927849F9001859F300D949F300DA1
:1013600011242E2B3F2B232BD9F68FE392E42FE071
:10137000815090402040E1F700C00000CFEFCD0F3A
:10138000CE3138F0C0939C060E94151403C0CD2FB7
:1013900001C0CEE193B12091980661E070E0222374
:1013A00011F060E070E089B141E050E0213011F0CF
:1013B00040E050E0929596959770902790FBEE2430
:1013C000E0F8F12CE69EF001E79EF00DF69EF00DA0
:1013D0001124082E000C990B809590958827990F61
:1013E000881F9927849F9001859F300D949F300D11
:1013F00011242E2B3F2B232BB9F193B189B1929558
:1014000096959770902790FBCC24C0F8D12CC69E5F
:10141000F001C79EF00DD69EF00D1124082E000C91
:10142000990B809590958827990F881F9927849FFD
:101430009001859F300D949F300D11242E2B3F2B52
:10144000232BD9F68FE392E42FE081509040204087
:10145000E1F700C00000CF5FCD3328F4C0939C06B5
:101460000E94151401C0CCE37D2E4E9B02C0DC2FE0
:101470000ECF4E9BFECF8FE392E42FE08150904041
:101480002040E1F700C000001C1709F488C0C09399
:101490009C060E94151459988091000190910101B9
:1014A000019609F47CC080E090E00E94081B89E16D
:1014B00091E09093DB068093DA060E946905109212
:1014C000D6061092D7061092D8061092D9068091AF
:1014D0000001909101010E94771BFC012091E5061B
:1014E000828D938D2B3071F4C488D588E12CF12C3A
:1014F0007601DD24CC24A0E0B0E0C82AD92AEA2A6B
:10150000FB2A03C06C01E12CF12C82E0C81AD1083F
:10151000E108F108A091F406B0E0A70196010E944D
:10152000981D0091E1061091E2062091E3063091AA
:10153000E406600F711F821F931F0E941D17E09128
:10154000DA06F091DB0680819181A281B3818D3C26
:101550009240AB4AB14019F5C18BA091F406B0E0BE
:10156000A70196010E94981D0091E1061091E206E4
:101570002091E3063091E406600F711F821F931FD4
:10158000DF91CF911F910F91FF90EF90DF90CF905F
:10159000BF90AF909F908F907F900C947417DF91C5
:1015A000CF911F910F91FF90EF90DF90CF90BF9060
:1015B000AF909F908F907F9008957F928F929F928F
:1015C000AF92BF92CF92DF92EF92FF920F931F9351
:1015D000CF93DF930E94431460E080E00E94501498
:1015E0000E948D158AE791E00E9476150E948D1564
:1015F00043E065E084E00E94C70262E080E00E9470
:10160000501488E991E00E9476158091D50690E00B
:101610000E943C159090D506A92CBB24B394772446
:101620007394DAE08D2E0E94B1088091D506A81639
:1016300099F062E080E00E94501488E991E00E94F5
:1016400076158091D50690E00E943C1588E690E0E2
:101650000E947615A090D5064B996BC189B1209157
:10166000980641E050E0222311F040E050E093B1B1
:1016700061E070E0213011F060E070E092959695A5
:1016800097709B259170C92F20E0D22FC69FF00143
:10169000C79FF00DD69FF00D1124082E000C990B5A
:1016A000809590958827990F881F9927849F90018E
:1016B000859F300D949F300D11242E2B3F2B232B13
:1016C000B1F189B193B19295969597709B25092FA9
:1016D000017010E0069FF001079FF00D169FF00DBE
:1016E0001124082E000C990B809590958827990F4E
:1016F000881F9927849F9001859F300D949F300DFE
:1017000011242E2B3F2B232BE1F68FE392E42FE0C5
:10171000815090402040E1F700C000008091D50644
:10172000815019F08093D50602C08092D50693B1FE
:101730002091980661E070E0222311F060E070E0F3
:1017400089B141E050E0213011F040E050E0929545
:10175000969597709B2590FBEE24E0F8F12CE69E81
:10176000F001E79EF00DF69EF00D1124082E000CFE
:10177000990B809590958827990F881F9927849FAA
:101780009001859F300D949F300D11242E2B3F2BFF
:10179000232BC1F193B189B19295969597709B25B2
:1017A00090FBCC24C0F8D12CC69EF001C79EF00D52
:1017B000D69EF00D1124082E000C990B8095909563
:1017C0008827990F881F9927849F9001859F300D46
:1017D000949F300D11242E2B3F2B232BD9F68FE312
:1017E00092E42FE0815090402040E1F700C00000DB
:1017F0008091D5068F5F8B3018F48093D50602C098
:101800007092D5064E990FCF4E9BFECF8FE392E498
:101810002FE0815090402040E1F700C0000080910F
:10182000D506981609F485C08091000190910101B8
:10183000019609F47EC080E090E00E94081B89E1D7
:1018400091E09093DB068093DA060E94690510927E
:10185000D6061092D7061092D8061092D90680911B
:101860000001909101010E94771BFC012091E50687
:10187000828D938D2B3071F4C488D588E12CF12CA6
:101880007601DD24CC24A0E0B0E0C82AD92AEA2AD7
:10189000FB2A03C06C01E12CF12C82E0C81AD108AC
:1018A000E108F108A091F406B0E0A70196010E94BA
:1018B000981D0091E1061091E2062091E306309117
:1018C000E406600F711F821F931F0E941D17E09195
:1018D000DA06F091DB0680819181A281B3818D3C93
:1018E0009240AB4AB14029F58091D5068483A091FE
:1018F000F406B0E0A70196010E94981D0091E10650
:101900001091E2062091E3063091E406600F711F0A
:10191000821F931FDF91CF911F910F91FF90EF9046
:10192000DF90CF90BF90AF909F908F907F900C945E
:101930007417DF91CF911F910F91FF90EF90DF907F
:10194000CF90BF90AF909F908F907F9008959F927F
:10195000AF92BF92CF92DF92EF92FF920F931F93BD
:10196000CF93DF930E94431460E080E00E94501404
:101970000E948D158EEC91E00E9476150E948D15C7
:1019800043E065E084E00E94C70262E080E00E94DC
:1019900050140E94851580EB91E00E9476150E94FC
:1019A000851563E080E00E94501481EA91E00E9476
:1019B0007615C1E0992493940E94B10889B1609191
:1019C000980621E030E0662311F020E030E093B18A
:1019D00041E050E0613011F040E050E09295969582
:1019E00097709925092F017010E0049FB001059FA1
:1019F000700D149F700D1124082E000C990B80950A
:101A000090958827990F881F9927829FF001839FBF
:101A1000F00D929FF00D11246E2B7F2B672B09F494
:101A200045C089B193B1929596959770992590FB91
:101A3000EE24E0F8F12CE49EB001E59E700DF49EDA
:101A4000700D1124082E000C990B80959095882715
:101A5000990F881F9927829FF001839FF00D929F15
:101A6000F00D11246E2B7F2B672BD9F62FE382E428
:101A70009FE0215080409040E1F700C00000C1305D
:101A8000A1F462E080E00E94501480EB91E00E949B
:101A900076150E94851563E080E00E94501481EA6B
:101AA00091E00E9476150E948515C2E093B1609185
:101AB000980641E050E0662311F040E050E089B123
:101AC00021E030E0613011F020E030E09295969511
:101AD0009770992590FBCC24C0F8D12CC49EB001FE
:101AE000C59E700DD49E700D1124082E000C990B0C
:101AF000809590958827990F881F9927829FF001DC
:101B0000839FF00D929FF00D11246E2B7F2B672B7E
:101B100009F44FC093B189B1929596959770992524
:101B200090FBAA24A0F8B12CA49EB001A59E700D34
:101B3000B49E700D1124082E000C990B8095909581
:101B40008827990F881F9927829FF001839FF00DA6
:101B5000929FF00D11246E2B7F2B672BD9F62FE36C
:101B600082E49FE0215080409040E1F700C00000F7
:101B7000DFEFDC0F01F1D13011F40E94851562E036
:101B800080E00E94501480EB91E00E947615C250D4
:101B9000C23010F40E94851563E080E00E9450146A
:101BA00081EA91E00E947615D23031F40E948515C9
:101BB00003C0DC2F01C0D1E04E9B02C0CD2FFCCE74
:101BC0004E9BFECF2FE382E49FE021508040904067
:101BD000E1F700C00000D13069F4DF91CF911F918F
:101BE0000F91FF90EF90DF90CF90BF90AF909F90BC
:101BF0000C94DD0AD23069F4DF91CF911F910F91DF
:101C0000FF90EF90DF90CF90BF90AF909F900C949B
:101C1000B508DF91CF911F910F91FF90EF90DF906A
:101C2000CF90BF90AF909F9008952F923F924F9288
:101C30005F926F927F928F929F92AF92BF92CF925C
:101C4000DF92EF92FF920F931F93CF93DF93CDB765
:101C5000DEB728970FB6F894DEBF0FBECDBF109247
:101C600009011092080189E191E09093DB068093CD
:101C7000DA0685ED93E090939F0680939E068FEFA2
:101C80009FEFDC018093D6069093D706A093D806E9
:101C9000B093D9060E9469050E948D1560E080E02E
:101CA0000E94501483E691E00E94761561E080E086
:101CB0000E9450140E948D1543E065E084E00E946C
:101CC000C70211E0612F80E00E9450148FEB91E079
:101CD0000E9476151F5F1530A9F762E080E00E9430
:101CE000501484E591E00E94761500E010E0C801F0
:101CF0000E94771B7C01009799F0FC018081811183
:101D00000FC08091080190910901892BC9F562E00B
:101D100080E00E94501485E491E00E947615FEC197
:101D2000C7010E94F402811105C0C7010E940A0385
:101D30008823B9F0E0910801F0910901EE0FFF1F2F
:101D400080919E0690919F06E80FF91F11830083F2
:101D50008091080190910901019690930901809367
:101D600008010F5F1F4F8091080190910901883C85
:101D700091053CF60039F1E01F0709F0B8CFC1CF5B
:101D800062E080E00E94501486E391E00E947615A4
:101D9000809108019091090102971CF0A12CB12CAF
:101DA0005DC02091080130910901409106015091D8
:101DB0000701E0919E06F0919F0600E010E080E0B0
:101DC00090E062C08701000F111FE0919E06F09124
:101DD0009F06E00FF11F808191810E94771B48E0F0
:101DE00050E0BC01CE0101960E94C51DE0919E0607
:101DF000F0919F06EC0DFD1D808191810E94771B63
:101E000048E050E0BC01CE0101960E94B81D97FF4A
:101E100012C0E0919E06F0919F06DF01A00FB11F56
:101E20008D919C911197EC0DFD1D208131812D9399
:101E30003C93918380832FEFE21AF20A82E0C80E6E
:101E4000D11C80910801909109018A199B09E8161B
:101E5000F9060CF4B7CF9FEFA91AB90A80910801CF
:101E6000909109010197A816B9060CF09ACFC12CE0
:101E7000D12CEE24E394F12CE4CF6191719164179D
:101E8000750709F48C01019682179307B4F3EE24C9
:101E9000EA94FE2CDD24D3940E94B1084B993EC1F4
:101EA00089B12091980641E050E0222311F040E0F2
:101EB00050E093B161E070E0213011F060E070E03B
:101EC0009295969597709D2590FB222420F8312CB1
:101ED000269EF001279EF00D369EF00D1124082E4F
:101EE000000C990B809590958827990F881F99274A
:101EF000849F9001859F300D949F300D11242E2BCF
:101F00003F2B232BC9F189B193B192959695977088
:101F10009D2590FB442440F8512C469EF001479E9D
:101F2000F00D569EF00D1124082E000C990B809593
:101F300090958827990F881F9927849F9001859FE6
:101F4000300D949F300D11242E2B3F2B232BD9F6CF
:101F5000EFE3F2E42FE0E150F0402040E1F700C071
:101F600000000F5F1F4F8091080190910901081731
:101F7000190711F400E010E093B12091980661E098
:101F800070E0222311F060E070E089B141E050E0A0
:101F9000213011F040E050E09295969597709D2584
:101FA00090FB662460F8712C669EF001679EF00D30
:101FB000769EF00D1124082E000C990B80959095BB
:101FC0008827990F881F9927849F9001859F300D3E
:101FD000949F300D11242E2B3F2B232BC1F193B155
:101FE00089B19295969597709D2590FB882480F8ED
:101FF000912C869EF001879EF00D969EF00D112487
:10200000082E000C990B809590958827990F881FB2
:102010009927849F9001859F300D949F300D112446
:102020002E2B3F2B232BD9F68FE392E4EFE0815048
:102030009040E040E1F700C000000150110917FF97
:1020400006C00091080110910901015011094E9933
:102050002FC04E9BFECFFFE322E48FE0F1502040E3
:102060008040E1F700C00000000F111FE0919E06C4
:10207000F0919F06E00FF11F808191810E94771BF4
:102080007C010E940A03882331F0C7010E94081BCB
:102090000E94150E43C080919E0690919F06FC0100
:1020A000E00FF11FB701808191810E949E0636C02A
:1020B0000E151F0509F4F0CEE0919E06F0919F06E3
:1020C000C801880F991FE80FF91F808191810E9434
:1020D000771B7C0162E080E00E945014C7010E94DF
:1020E0000A03882319F086E090E002C081E090E0C6
:1020F0000E949014570198E0E90EF11CF5018191BE
:102100005F01803211F00E94E514AE14BF04B1F7F4
:102110008FEB91E00E9476157801BECE28960FB61F
:10212000F894DEBF0FBECDBFDF91CF911F910F910D
:10213000FF90EF90DF90CF90BF90AF909F908F90E7
:102140007F906F905F904F903F902F9008958F9267
:102150009F92AF92BF92CF92DF92EF92FF920F9336
:102160001F93CF93DF9389E191E09093DB068093F7
:10217000DA068FEF9FEFDC018093D6069093D706A7
:10218000A093D806B093D90680E090E00E94081B87
:102190008FEF9FEF9093010180930001CFEFDFEF6E
:1021A00000E010E03EE1F32E4CE3E42EC8010E9473
:1021B000771B6C01009709F49AC0FC018081882389
:1021C00009F49CC0C6010E94F402882329F0CF3F85
:1021D000FFEFDF0709F4E8014BE050E060E770E053
:1021E000C6010E94AA1D892B09F081C0109301012C
:1021F000009300012091E506F601828D938D2B302E
:1022000079F424893589A90160E070E0BA01552785
:102210004427A0E0B0E0482B592B6A2B7B2B03C04E
:10222000AC0160E070E0A091F4069A01AB0122508D
:10223000310941095109B0E00E94981D8090E106E2
:102240009090E206A090E306B090E406680D791D38
:102250008A1D9B1D0E941D17C090DA06D090DB06D8
:10226000F60180819181A281B3818D3C9240AB4A7D
:10227000B140A9F5F60184818093D50681898D331B
:1022800018F480939C0602C0E0929C0680919C0604
:102290008E3110F4F0929C060E9415145998F601A4
:1022A00085819681A781B0858093EA069093EB069D
:1022B000A093EC06B093ED06B184D2848B2D9D2DB6
:1022C0000E94771B009739F00E94F402882319F0CE
:1022D000CB2DDD2D13C080E090E00E94081B80E034
:1022E00090E00E94081BCF3FFFEFDF07E1F40F5F94
:1022F0001F4F003921E0120709F058CFCF3F8FEF71
:10230000D80789F4F8940E94150E4B991FC080914C
:10231000D006882331F080916E00816080936E003A
:10232000E89A789413C0CE010E94771BBC01CE01BD
:10233000DF91CF911F910F91FF90EF90DF90CF90A1
:10234000BF90AF909F908F900C949E06DF91CF919D
:102350001F910F91FF90EF90DF90CF90BF90AF90C3
:102360009F908F9008954F925F926F927F928F927D
:102370009F92AF92BF92CF92DF92EF92FF920F9314
:102380001F93CF93DF930E94B1084B9B22C08FEF26
:1023900090E04B9BC3C10197E1F780916E008E7F67
:1023A00080936E00E8981092D0061092A306DF91F9
:1023B000CF911F910F91FF90EF90DF90CF90BF9042
:1023C000AF909F908F907F906F905F904F900C9404
:1023D0004202309B87C14E9B5AC089B140919806FA
:1023E00061E070E0442311F060E070E093B121E01F
:1023F00030E0413011F020E030E0929596959770F2
:10240000A1E09A2790FBAA24A0F8B12CA29EA001DB
:10241000A39E500DB29E500D1124082E000C990B56
:10242000809590958827990F881F9927869FF0019E
:10243000879FF00D969FF00D11244E2B5F2B452B9F
:1024400031F593B189B1929596959770A927A0FB24
:10245000CC24C0F8D12CC69EA001C79E500DD69E9C
:10246000500D1124082E000C990B8095909588270B
:10247000990F881F9927829FB001839F700D929FAB
:10248000700D1124462B572B452B09F42BC14E9967
:1024900010C084E690E021E04E9920E00197E1F73A
:1024A000222309F43BC14E9BFECFF8940E94150EE7
:1024B00016C129B16091980641E050E0662311F001
:1024C00040E050E033B181E090E0613011F080E015
:1024D00090E0329536953770A1E03A2730FBEE2434
:1024E000E0F8F12CE89EB001E99E700DF89E700DA9
:1024F0001124022E000C330B209530952227330F28
:10250000221F3327249FF001259FF00D349FF00DEB
:1025100011246E2B7F2B672B09F45FC064E670E0FB
:10252000FF24F394EE24E39429B133B13295369528
:1025300037703E25032F017010E0089FF001099FBE
:10254000F00D189FF00D1124022E000C330B209576
:1025500030952227330F221F3327249FD001259F38
:10256000B00D349FB00D11249F012A2B3B2B232B40
:1025700009F4F12C61507109B9F6FF2009F4CEC0BD
:10258000A1E029B133B13295369537703A273170D1
:10259000C32F30E0D32FC89FF001C99FF00DD89F03
:1025A000F00D1124022E000C330B209530952227BC
:1025B000330F221F3327249FB001259F700D349FB6
:1025C000700D11249F01262B372B232BD1F6F89465
:1025D0000E94A70C4B99A2C094C033B129B1329587
:1025E00036953770A327A0FB882480F8912C849E11
:1025F000B001859E700D949E700D1124022E000C6A
:10260000330B209530952227330F221F3327289F25
:10261000F001299FF00D389FF00D11249B012E2B06
:102620003F2B232B09F47AC064E670E0C1E0D1E0CF
:1026300033B129B13295369537703D2730FB66248A
:1026400060F8712C649EF001659EF00D749EF00D93
:102650001124022E000C330B209530952227330FC6
:10266000221F3327289FD001299FB00D389FB00D1E
:1026700011249F012A2B3B2B232B09F4C0E061502E
:102680007109B1F6CC2309F449C0A1E033B129B1F5
:102690003295369537703A2730FB442440F8512C58
:1026A000449EF001459EF00D549EF00D1124022E23
:1026B000000C330B209530952227330F221F332730
:1026C000289FB001299F700D389F700D11249F0124
:1026D000262B372B232BD1F6F8940E9412084B9B04
:1026E00012C01CC08091D006811118C08FEF90E0FD
:1026F0004B9914C00197E1F7F89481E00E948E0590
:1027000081110E94A7108091D006882331F080911A
:102710006E00816080936E00E89A7894DF91CF918B
:102720001F910F91FF90EF90DF90CF90BF90AF90EF
:102730009F908F907F906F905F904F90089561155C
:10274000710571F448B121E030E0B90102C0660FB3
:10275000771F8A95E2F7CB018095842388B9089585
:102760006130710539F498B101C0660F8A95EAF7B6
:10277000692B68B908958F929F92AF92BF92CF92C2
:10278000DF92EF92FF920F931F93CF93DF93042F6B
:10279000A62EB12C11E001C0110F6A95EAF7C7E02F
:1027A000D0E0E22EF12CC82ED12C87E0882E912C7F
:1027B000013029F4C4018C1B9D0BB70102C0B70185
:1027C0008C2F02C0759567958A95E2F7617077271F
:1027D000C6010E949F1388B1812B88B960E070E028
:1027E000C5010E949F13219718F7DF91CF911F9188
:1027F0000F91FF90EF90DF90CF90BF90AF909F90A0
:102800008F900895CF93C62F599A682F70E083E078
:1028100090E00E949F1345982C2F40E064E081E0F7
:102820000E94BB13459ACF910895599A61E280E0C6
:102830000E94021460919C06606880E00E9402146D
:1028400064E080E00E94021464E180E00E940214CF
:102850006CE080E00E94021460E280E00E940214BA
:102860006CE080E00C9402148FE280939C0610923E
:10287000A0061092A10610929D063D9A3B9A399AA5
:102880003C9A0C941514CF93DF93C8EFD1E060E02D
:1028900081E00E9402142197D1F7DF91CF91089532
:1028A000CF93C62F682F606880E00E9402146C2FBF
:1028B000606480E0CF910C940214CF93C0E060E09C
:1028C0008C2F0E94501461E081E00E940214CF5FBF
:1028D000C435A9F7C0E065E08C2F0E94501460E871
:1028E00081E00E940214CF5FC435A9F7C0E06C2FCD
:1028F00083E50E9450146FEF81E00E940214CF5FC5
:10290000C630A9F7C0E06C2F80E00E9450146FEF32
:1029100081E00E940214CF5FC630A9F7CF910895DD
:10292000EF92FF920F931F93CF93DF937C018CE084
:102930008E9D80018F9D100D1124C0E0D0E08FEF9F
:10294000E816F10439F0FE01E00FF11FEF5EFD4FD4
:10295000E49101C0E0E08091A0068111E0958091B2
:10296000A106813011F060E001C060E881E0909143
:102970009D06913009F080E0E82B6E2B81E00E94EB
:1029800002142196CC30D105D1F661E08091A006E9
:10299000813009F060E0862F81959091A1069130F9
:1029A00011F090E001C090E861E020919D06213097
:1029B00009F060E0682B692B81E0DF91CF911F91D6
:1029C0000F91FF90EF900C9402140F931F93CF93ED
:1029D000DF9325E0829FC0011124C0E0D0E08C018C
:1029E000005A1109F801EC0FFD1FEB59FD4FE4915E
:1029F0008091A0068111E0958091A106813011F0AF
:102A000060E001C060E881E090919D06913009F09E
:102A100080E0E82B6E2B81E00E9402142196C530E5
:102A2000D10501F761E08091A006813009F060E0F6
:102A3000862F81959091A106913011F090E001C010
:102A400090E861E020919D06213009F060E0682B5C
:102A5000692B81E0DF91CF911F910F910C940214AB
:102A6000CF93DF93EC018991882319F00E94E5143C
:102A7000FACFDF91CF910895CF93DF93CDB7DEB733
:102A80002A970FB6F894DEBF0FBECDBF4AE0BE0155
:102A90006F5F7F4F0E94D91DCE0101960E943015B5
:102AA0002A960FB6F894DEBF0FBECDBFDF91CF914F
:102AB0000895CF93DF93CDB7DEB72A970FB6F8947A
:102AC000DEBF0FBECDBF2AE0AE014F5F5F4F0E9459
:102AD000E41DCE0101960E9430152A960FB6F89497
:102AE000DEBF0FBECDBFDF91CF910895CF93DF93AF
:102AF000FC018491EF012196882321F00E94E514C6
:102B0000FE01F7CFDF91CF91089581E09091A0066B
:102B1000911180E08093A006089581E09091A10634
:102B2000911180E08093A106089581E090919D0627
:102B3000911180E080939D060895519A549A559A78
:102B400050981092D206089528E030E090E840E2D4
:102B500050E160E3782F792319F05BB96BB902C0BB
:102B60001BB84BB9969521503109A1F71BB80895B0
:102B7000CF93DF931F92CDB7DEB780E18BB9198277
:102B800080E020E330E19981983051F02BB999B180
:102B9000880F9170892B3BB999819F5F9983F3CFFF
:102BA0000F90DF91CF91089582E38BB982E18BB9C9
:102BB000089528E100002A95E9F70197D1F70895D3
:102BC0000895DF92EF92FF920F931F93CF93DF93BD
:102BD000082FC8E0D0E010E880E2F82E90E1E92E5E
:102BE00020E3D22E802F812339F0EBB881E090E0F2
:102BF0000E94D915DBB806C01BB881E090E00E94A6
:102C0000D915FBB81695219769F781E090E00E94ED
:102C1000D9151BB8DF91CF911F910F91FF90EF90C5
:102C2000DF9008959091D206911103C00E94E115A2
:102C300002C00E94A41580E00895FF920F931F9395
:102C4000CF93DF931F92CDB7DEB780E18BB981E0E0
:102C500090E00E94D915198210E000E380E1F82E7F
:102C60008981883091F00BB981E090E00E94D915FC
:102C700089B1110F8170182BFBB881E090E00E94A0
:102C8000D91589818F5F8983EBCF812F0F90DF91D9
:102C9000CF911F910F91FF9008958091D2068111DD
:102CA00002C00C941D160C94B81582E38BB981E018
:102CB00090E00E94D91582E18BB981E090E00C94FC
:102CC000D91581E08093D20608951092D206089516
:102CD0000E94B81587FDFCCF0895CF92DF92EF9246
:102CE000FF92CF93C82F6A017B010090D40604C0E5
:102CF000CC0CDD1CEE1CFF1C0A94D2F78FEF0E9457
:102D0000A4158C2F80640E94A4158F2D0E94A415F9
:102D10008E2D0E94A4158D2D0E94A4158C2D0E942D
:102D2000A41585E90E94A4158FEF0E94A4150E94A6
:102D300068168093DF0681508E3FC8F3CF91FF90D5
:102D4000EF90DF90CF900895AB01BC011092DD06AB
:102D500081E10E946D160E94B8158093E0068E3FB7
:102D6000D1F70895CF92DF92EF92FF92CF93DF9346
:102D7000C82F6A017B018091DC06811113C08FEEA0
:102D80008C0F823040F088EE8C0F823020F080EE85
:102D90008C0F823038F489E0CC0CDD1CEE1CFF1C5B
:102DA0008A95D1F78FEF0E9412168C2F80640E94B3
:102DB00012168F2D0E9412168E2D0E9412168D2D26
:102DC0000E9412168C2D0E941216C83011F487E84A
:102DD00001C085E90E941216F12C0E944D16D82FD1
:102DE0008F3F21F4FA94F110F8CF1DC081111BC060
:102DF000CA33C9F40E944D161092D40686FF05C04E
:102E000081E08093DC0682E006C01092DC0689E057
:102E10008093D40681E08093DE060E944D160E94C6
:102E20004D160E944D160E944D168D2FDF91CF91A9
:102E3000FF90EF90DF90CF900895CF92DF92EF92C6
:102E4000FF92CF93DF93C090D606D090D706E09044
:102E5000D806F090D906C616D706E806F906E1F1BD
:102E60006B017C016093D6067093D7068093D806D9
:102E70009093D90659988FEF0E9412168FEF0E94F7
:102E80001216B701A60181E10E94B216811125C078
:102E9000C0E0D0E00E944D168E3F29F02197D1F777
:102EA000599A80E01AC0E12CF12CC091DA06D09139
:102EB000DB06CE0DDF1D0E944D1688838FEFE81ACA
:102EC000F80AE11482E0F80681F70E944D160E948C
:102ED0004D160E944D16599A81E0DF91CF91FF90D7
:102EE000EF90DF90CF900895CF93DF93AB01BC01BB
:102EF00088E10E94B21681113DC059988EEF0E9460
:102F00001216C0E0D0E0E091DA06F091DB06EC0F9B
:102F1000FD1F80810E9412162196C11582E0D807FC
:102F200091F78FEF0E9412168FEF0E9412160E94E7
:102F30004D16982F9F71953079F4C0E0D0E00E9433
:102F40004D16811103C02196D1F706C0599A8FEF13
:102F50000E941216599808C0599A0CC09E012F5F02
:102F60003F4F2196C9F3E9010E944D168823B1F322
:102F7000599A81E0DF91CF910895AB01BC0180E1C6
:102F80000C94B216CF92DF92EF92FF920F931F93A1
:102F9000CF93DF931092D30685E08093D5060E94ED
:102FA0009D150E9465164B9998C080E185B9599A84
:102FB0008FE097E2A0E0B0E08093D6069093D7062A
:102FC000A093D806B093D906C4E60E945516C15006
:102FD000E1F75998CCE08FEF0E941216C150D9F753
:102FE00000E018E040E050E0BA0180E00E94B21634
:102FF0000150110931F415B8599A81E08093D30634
:103000006DC0813079F7CCE08FEF0E941216C1506D
:10301000D9F7C1E0D2E04AEA51E060E070E088E030
:103020000E94B2168A3A49F481E08093DE06C12CF0
:10303000D12CE12C80E4F82E09C08130A9F321972E
:1030400051F71092DE06C12CD12C7601CCE08FEF27
:103050000E941216C150D9F701E012E040E050E0A2
:10306000BA0187E30E94B216B701A60189E20E9465
:10307000B2160150110931F482E08093D30615B8DD
:10308000599A2CC08111EACF1092DC0689E0809316
:10309000D4068091DE06813081F040E050E0BA0134
:1030A0008BE30E94B21660E072E080E090E00E9444
:1030B000BD1715B8599AC1E011C0C5E6D0E08FEF31
:1030C0000E94121640E050E0BA018AE30E94B21654
:1030D000219719F38111F3CFE0CFC0E08C2FDF915E
:1030E000CF911F910F91FF90EF90DF90CF900895B7
:1030F00080E185B9089515B808950E94B8154B99D7
:1031000002C08F3FD1F708958F929F92AF92BF92E6
:10311000CF92DF92EF92FF921F93CF93DF9360E005
:1031200070E0CB010E941D17E091DA06F091DB06FA
:1031300080818D7F893E51F1DF01A250BE4F8D917C
:103140009C9185359A4A11F086E014C0E254FE4FF6
:1031500084818093E50660857185828593850E94D0
:103160001D17E091DA06F091DB0680818D7F893EA4
:1031700029F083E08093D30680E0A7C08091E50624
:103180008B3021F0863011F084E0F4CFC091DA0664
:10319000D091DB06438554855093EF064093EE06AD
:1031A00015851093F40686859785C48CD58CE68C9E
:1031B000F78CC80ED91EE11CF11CC092F006D0920B
:1031C000F106E092F206F092F3068091E506863071
:1031D00019F4A689B78902C0ACA1BDA1208930E04D
:1031E0002A9FB0012B9F700D3A9F700D112446014C
:1031F0005701860E971EA11CB11C8092E106909289
:10320000E206A092E306B092E4068630D9F08CA5DF
:103210009DA5AEA5BFA59C01AD0122503109410974
:103220005109A12FB0E00E94981D860E971EA81E7E
:10323000B91E8092E6069092E706A092E806B09248
:10324000E90624C00E94891DC60ED71EE81EF91E7D
:10325000C092E606D092E706E092E806F092E90610
:103260008189928935E0880F991F3A95E1F7BA0173
:103270000E94531DC60ED71EE11CF11CC092E10630
:10328000D092E206E092E306F092E406812F90E00D
:1032900020E031E0320F8130910521F0969587953D
:1032A000232FF7CF2093F5068091E6069091E7064D
:1032B000A091E806B091E9068093EA069093EB06A8
:1032C000A093EC06B093ED0681E0DF91CF911F91C2
:1032D000FF90EF90DF90CF90BF90AF909F908F9036
:1032E00008954F925F926F927F928F929F92AF92CA
:1032F000BF92CF92DF92EF92FF92CF932091E5069B
:10330000263039F488248A94982CA12CB12C21E001
:1033100007C088248A94982CA82C2FE0B22E22E093
:1033200004C0660F771F881F991F2A95D2F7209136
:10333000EE063091EF0640E050E00E94671D6B0101
:103340007C018091F0069091F106A091F206B09177
:10335000F30629013A01480E591E6A1E7B1ECAE077
:10336000C301B2010E941D17882311F0C150C1F79B
:103370008091DA069091DB06FC01EC0DFD1D808149
:103380009181A281B381BC01CD01682179218A217B
:103390009B21CF91FF90EF90DF90CF90BF90AF90A7
:1033A0009F908F907F906F905F904F9008954F9275
:1033B0005F926F927F928F929F92AF92BF92CF92C5
:1033C000DF92EF92FF92CF9388EEC82E83E0D82E43
:1033D000E12CF12CC701B6010E947119611571052C
:1033E0008105910591F030EAC31636E8D30631E045
:1033F000E306F10431F02FEFC21AD20AE20AF20A10
:10340000E9CF60E070E0CB0151C040EAC41646E865
:10341000D40641E0E406F10409F448C08091E506D1
:10342000863011F481E001C082E0A701960104C05A
:10343000220F331F441F551F8A95D2F7CA01B901C5
:103440002091EE063091EF0640E050E00E94671DAB
:103450002B013C018091F0069091F106A091F206BB
:10346000B091F30649015A01880E991EAA1EBB1E8F
:10347000CAE0C501B4010E941D17882311F0C15094
:10348000C1F78091DA069091DB06FC01E40DF51D91
:103490008FEF90E0A0E0B0E080839183A283B383BC
:1034A000C501B4010E947417C701B601CF91FF9006
:1034B000EF90DF90CF90BF90AF909F908F907F90D4
:1034C0006F905F904F9008958F929F92AF92BF92AE
:1034D000CF92DF92EF92FF920F931F93CF93DF93E0
:1034E000EC0155E0CC0FDD1F5A95E1F78E01012F5D
:1034F000112706952091F406622F70E0C8010E9402
:10350000531D7B018091EA069091EB06A091EC0699
:10351000B091ED06672B09F44EC03091E5063630C8
:1035200071F48090E6069090E706A090E806B090CF
:10353000E90688159905AA05BB0509F45AC08090CB
:10354000E1069090E206A090E306B090E406BC018C
:10355000CD01681979098A099B0930E040E050E003
:103560000E94671DCA01B9016E5F7F4F8F4F9F4F49
:10357000C12CD12C0E9471192FEFC21AD20ACE147D
:10358000DF04C1F79B01AC01225031094109510907
:10359000A091F406B0E00E94981D8090E106909002
:1035A000E206A090E306B090E406DC01CB01880DB2
:1035B000991DAA1DBB1D9801322F2227330FC21B54
:1035C000D30B4091F4064E9D90014F9D300D112478
:1035D000021B130BBC01CD01600F711F811D911DDA
:1035E0000E941D178091DA069091DB068C0F9D1FBB
:1035F00002C080E090E0DF91CF911F910F91FF908A
:10360000EF90DF90CF90BF90AF909F908F900895F4
:103610000F931F93FC01892B49F48091E60690914A
:10362000E706A091E806B091E90639C09385892F95
:10363000807194FF3DC02091E506828D938D2B30E3
:1036400079F424893589A90160E070E0BA01552731
:103650004427A0E0B0E0842B952BA62BB72B02C00B
:10366000A0E0B0E00097A105B105B9F29C01AD0161
:103670002250310941095109A091F406B0E00E949D
:10368000981D0091E1061091E2062091E306309129
:10369000E406DC01CB01800F911FA21FB31F8093B2
:1036A000EA069093EB06A093EC06B093ED0681E05A
:1036B0001F910F910895FC01892BB1F0808188231F
:1036C00099F0853E89F08E3221F481818E3219F095
:1036D0000BC0853049F083858E3131F08F3021F079
:1036E000883211F0CF01089580E090E008950E94A3
:1036F000641A0C945B1B0000000000000000000036
:10370000000000000000000008950000000000001C
:1037100000002091D5062A95F1F70895AF93AFB731
:10372000AF93BF932F93A091CF062091CE06A22BEB
:10373000A8B9A4EBA6BD20E0E8DFA091CE06A8B909
:10374000B091A306BB2341F02093CF062F91BF91E8
:10375000AF91AFBFAF911895A0E3ABB9A9B1A1707C
:10376000AA0F2A2FA0E1ABB9A0919106B0919206C1
:103770001196A0939106B0939206A03989F4BC30BB
:1037800079F4A1E0A093A306CF93C0E7A8E0B0E34B
:10379000BBB9B0E1BBB9AA95D1F7CA95B9F7CF913A
:1037A0002093CF062F91BF91AF91AFBFAF911895E6
:1037B0002F932FB72F9330995BC03F933091990689
:1037C00026B124702327E1F326B1247020939906B3
:1037D00028E02A95F1F700004F935F936F937F9352
:1037E0008F93EF93FF9360E0E091A406F091A5061C
:1037F0003DE541E00DC05091990676B17470752792
:10380000E1F376B17470709399067EE07A95F1F7E2
:1038100027E081E079B17470D9F4000000007BE109
:103820007A95F1F776B17470509199067093990674
:10383000752776957695880F872B2A9559F7853DBC
:1038400009F461E06030B9F281933150404099F65B
:103850009F93AF93BF930E94F804BF91AF919F9144
:10386000FF91EF918F917F916F915F914F913F9178
:103870002F912FBF2F91189581E00E9457028FEF53
:1038800080931501CBE80E94B311309B03C00E94C6
:103890007B18F9CF0E94781883B18F7090910B013B
:1038A000891759F180930B01883049F0843009F46D
:1038B000F1C0823009F4F0C08130F9F4EFC082E049
:1038C0009091A206890FE82FE770E695F0E0E459A1
:1038D000FF4FE49180FFE295EF708E2F887009F022
:1038E000E86FE90FE53C08F0DBC0E093A2068091A9
:1038F000A2068C3810F0C093A2068091D0068823CF
:1039000009F4C1CF8091A306882309F4BCCFF894B1
:10391000809193068F5F8F70809393062091A2060B
:10392000269526952093D10690E030E1239F800DC7
:10393000911D112490939B0680939A060090F506A2
:1039400002C0969587950A94E2F7909317018093A9
:103950001601880F991F880F991FFC01EA55F94F2E
:1039600080819181A281B381809394069093950682
:10397000A0939606B0939706809115012817B9F089
:103980002093150163E08CE00E94501482E791E0DF
:103990000E9476158091D1068A3020F483E091E070
:1039A0000E9430158091D10690E00E943C158091D4
:1039B000930690910C01981306C0209111019091EB
:1039C000D106291741F190910D01891306C020916C
:1039D00012019091D1062917F1F090910E018913EF
:1039E00006C0209113019091D1062917A1F0909162
:1039F0000F01891306C0209114019091D106291757
:103A000051F090911001891308C090911501809197
:103A1000D106981302C00E94900480919406909160
:103A20009506A0919606B09197060297A109B10953
:103A3000AC01BD010090F50604C0440F551F661F80
:103A4000771F0A94D2F78091E1069091E206A09147
:103A5000E306B091E406840F951FA61FB71F2091BF
:103A6000F40630E02150310940919A0650919B06AE
:103A700024233523BC01CD01620F731F811D911DCD
:103A80000E94A41610929206109291061092A3061C
:103A90007894F9CE84E014CF86E012CF80E010CF86
:103AA0001092A20624CFAA1BBB1B51E107C0AA1F7C
:103AB000BB1FA617B70710F0A61BB70B881F991FCF
:103AC0005A95A9F780959095BC01CD010895A1E282
:103AD0001A2EAA1BBB1BFD010DC0AA1FBB1FEE1F88
:103AE000FF1FA217B307E407F50720F0A21BB30BD3
:103AF000E40BF50B661F771F881F991F1A9469F74F
:103B000060957095809590959B01AC01BD01CF01AA
:103B10000895A29FB001B39FC001A39F700D811DA6
:103B20001124911DB29F700D811D1124911D0895C6
:103B30000E94891DA59F900DB49F900DA49F800D9C
:103B4000911D11240895FB01DC0105900D920020C8
:103B5000E1F70895FB01DC014150504030F08D91B8
:103B60000590801919F40020B9F7881B990B089566
:103B7000FB01DC0104C08D910190801921F44150BA
:103B80005040C8F7881B990B0895DC01FB01415098
:103B9000504058F049F001900D920020C1F7E61B0B
:103BA000F70B3197CF0108951C9201900020E9F79F
:103BB000F6CFBB274A3031F4992322F4BDE2909529
:103BC00081959F4F0C94161EBB272A3051F49923E0
:103BD00042F4BDE290958095709561957F4F8F4F2F
:103BE0009F4F0C94F41DBB27FA01A62F6217710595
:103BF00081059105330B30FB66F0AA27660F771F0E
:103C0000881F991FAA1FA21710F0A21B6395385096
:103C1000A9F7A05DAA3308F0A95DA19336F7B11109
:103C2000B1931082CA010C942F1EBB27FB015527AC
:103C3000AA27880F991FAA1FA41710F0A41B839509
:103C40005051B9F7A05DAA3308F0A95DA193009780
:103C500079F7B111B1931192CB010C942F1EDC01B5
:103C6000FC01672F71917723E1F7329704C07C91B3
:103C70006D9370836291AE17BF07C8F30895F999E9
:103C8000FECF92BD81BDF89A992780B50895262F61
:103C9000F999FECF1FBA92BD81BD20BD0FB6F89431
:0E3CA000FA9AF99A0FBE01960895F894FFCF94
:063CAE00FFFFFE200000F4
:00000001FF
