:100000000C940C030C94B91D0C9429030C94290333
:100010000C9429030C9429030C9429030C942903B0
:100020000C9429030C9429030C9429030C942903A0
:100030000C9429030C9429030C9429030C94290390
:100040000C946F1D0C9429030C9429030C94290320
:100050000C9429030C9429030C9429030C94290370
:100060000C9429030C942903200020000FED032198
:10007000534449534B494920434647004E6F205350
:100080004420696E7365727465640046415431366C
:1000900000464154333200547970653A2000436F72
:1000A00064653A2000534420426C6F636B204552D4
:1000B000524F52004D697373696E67204D42522052
:1000C000202000436C7573746572203C2033326BC2
:1000D00042004E6F742046415431362F3332202077
:1000E00000426F6F7420736563746F72202020006C
:1000F00053442063616E277420696E697420005335
:10010000442063616E27742069646C65200045207B
:10011000522052204F2052004E6F726D616C20535E
:1001200044206361726400534448432063617264F5
:1001300020202020200020536F7274696E67206693
:10014000696C6573202E2E2E20202000204E6F74A7
:1001500068696E6720666F756E64206865726521D8
:100160002000204275696C64696E67206C69737445
:10017000002053454C454354204E49432020202025
:1001800020202020202000547261636B3A20002040
:1001900053442053454C4543542044454C41592039
:1001A0002020202000204C434420434F4E545241F5
:1001B00053542020202020202020002056616C75E0
:1001C000653A200020526F74617465206469737011
:1001D0006C6179202020202020002053657420634A
:1001E0006F6E747261737420202020202020200004
:1001F000205365742053442064656C61792020206D
:10020000202020202000202020202020202020200E
:100210002020202020202020202020002053455472
:100220005550202020202020202020202020202069
:100230002000204E49432020202020202020202064
:100240002020202020202000202076657273696FF6
:100250006E20352E352028323032302900202053B0
:100260004449534B205D5B202D2042524153494C61
:1002700000000000000000000000000000000080FE
:10028000C0E0F0F8F83800000000000000000000B6
:10029000000000000000000000000000000000005E
:1002A000000000000000000000000000000000004E
:1002B000000000000000000000000000C0E0F0F0BE
:1002C000F8F8F8F8F8F8F8F0F0F7F7FFFBF9F8F8B5
:1002D000F8F8F8F8F07000000000000000000000DE
:1002E000000000000000000000000000000000000E
:1002F00000000000000000C0E0E00000000000007E
:100300000000000000FFFFFFFFFFFFFFFFFFFFFFF8
:10031000FFFFFFFFFFFFFFFFFFFFFFFFFF83007CEB
:10032000FEFFC7C7C70707FFFF00FFFFFF0787C71D
:10033000C7EFFEFE1800FFFFFF07C7C7C7FFFE7C21
:1003400000FFFFFF007CFEFFC7C7E7F7FFFFDF07E7
:100350001F7FFFFFFFFFFFFFFFFFFFFFFFFFFFFF0D
:10036000FFFFFFFFFFFFFFFFFEFC3801010101005F
:1003700000010100070F0F00010101010000000052
:100380000F0F070001010101000000010101000041
:100390000001010101010101010000000103070F3B
:1003A0001F1F1F1F1F0F0F0F0F0F0F1F1F1F1F1FBD
:1003B0000F07030000000000000000000000000024
:1003C000000000000000000000000000000000002D
:1003D000000000000000000000000000000000001D
:1003E00000000008141C1C1C1C1C1C36636322002B
:1003F00000FFFFF7E3E3F7FFFD0000007432524215
:1004000042424A4C2E00000000000402FF02040099
:100410000000000000002040FF402000000000001D
:10042000002070A82020203F0000000000FE8282F3
:10043000828484FC000000000000000000005F00D7
:10044000000007000700147F147F14242A7F2A125B
:10045000231308646236495522500005030000004A
:100460001C2241000041221C0014083E0814080808
:100470003E080800503000000808080808006060C6
:10048000000020100804023E5149453E00427F40D2
:100490000042615149462141454B311814127F10E9
:1004A00027454545393C4A4949300171090503361C
:1004B00049494936064949291E003636000000568A
:1004C00036000008142241001414141414004122B0
:1004D00014080201510906324979413E7E11111179
:1004E0007E7F494949363E414141227F4141221C9C
:1004F0007F494949417F090909013E4149497A7FBC
:100500000808087F00417F41002040413F017F08EB
:100510001422417F404040407F020C027F7F04084C
:10052000107F3E4141413E7F090909063E4151216C
:100530005E7F09192946464949493101017F010178
:100540003F4040403F1F2040201F3F4038403F6316
:100550001408146307087008076151494543007F78
:1005600041410002040810200041417F00040201C3
:100570000204404040404000010204002054545412
:10058000787F484444383844444420384444487FC1
:100590003854545418087E0901020C5252523E7FBE
:1005A0000804047800447D40002040443D007F1052
:1005B00028440000417F40007C041804787C080433
:1005C000047838444444387C14141408081414186B
:1005D0007C7C080404084854545420043F444020C0
:1005E0003C4040207C1C2040201C3C4030403C448F
:1005F000281028440C5050503C4464544C4400088B
:1006000036410000007F0000004136080010080855
:10061000100800060909060011241FBECFEFD8E01C
:10062000DEBFCDBF11E0A0E0B1E0E0E7F0E402C042
:1006300005900D92A630B107D9F726E0A6E0B1E00B
:1006400001C01D92A83FB207E1F70E941D1E0C9445
:1006500036200C9400000E94B11662E085E20E94F0
:10066000E5158EE091E00E94EF1664E086E10E94BD
:10067000E5158CE790E00E94EF164999FECF0895AA
:10068000CF93C82F14B817B81AB815B818B81BB834
:10069000259A2D9A399A3B9A419A17BC14BC81E04D
:1006A00085BD92E095BF90936900109293061092D9
:1006B000CE061092CD061092CC06109292061092A1
:1006C0009106109299068093A1061092A0061092AE
:1006D00010011092180189E191E09093A306809394
:1006E000A20680E090E00E942020823018F48093DF
:1006F000980607C01092980660E080E090E00E94A3
:100700002820CC2349F10E94AF16809198068130B1
:1007100011F40E9421160E94B11660E080E00E9450
:10072000E5150E94571766E08DE00E94E5158DE5FE
:1007300092E00E94EF1667E087E00E94E51588E4EA
:1007400092E00E94EF162FED80E792E72150804063
:100750009040E1F700C00000CF9108951F93CF9320
:10076000DF93182FD62FC42F67E080E00E94E51595
:100770000E94551786E092E00E94EF1667E080E045
:100780000E94E515812F90E00E94FE1667E08AE343
:100790000E94E5158D2F90E00E94FE1667E083E72A
:1007A0000E94E5158C2F90E00E94FE16DF91CF91FC
:1007B0001F910C945517FC01892B89F080818823A7
:1007C00079F0853E61F08F3551F080858E3439F4B3
:1007D0008185893421F481E09285933409F080E0A9
:1007E0000895FC01892B59F08081882349F0853ECA
:1007F00031F08F3521F0838582958170089580E0F6
:100800000895CF92DF92EF92FF920F931F93CF93B1
:10081000DF938FEF9FEF90930101809300010E947F
:10082000B81B6B017C01672B682B692BD9F180E029
:1008300090E00E94E91C00E010E0C8010E94451C05
:10084000EC01892B49F18881853E11F0811124C08A
:100850008B858F3009F1109301010093000160E74F
:1008600070E0CE010E94841F81E08B87FD8AEC8AB4
:10087000DB8ECA8E6091D8067091D9068091DA0617
:100880009091DB06DF91CF911F910F91FF90EF9038
:10089000DF90CF900C9455190F5F1F4F003981E006
:1008A000180759F6DF91CF911F910F91FF90EF90AC
:1008B000DF90CF9008958F929F92AF92BF92CF9288
:1008C000DF92EF92FF921F93CF93DF93182FD62FD3
:1008D000C42F862F90E020E1429F800D911D1124AE
:1008E000FC010090F70602C0F695E7950A94E2F73E
:1008F000EE0FFF1FEE0FFF1FEC55F94F40815181A6
:100900006281738120E12BB91BB82091F60630E09B
:100910002150310982239323C090E306D090E4064E
:10092000E090E506F090E60646015701880E991E14
:10093000A11CB11C42505109610971090090F706D0
:1009400004C0440F551F661F771F0A94D2F7480D45
:10095000591D6A1D7B1D88E10E944E188FEF0E9471
:1009600085178EEF0E94851780EB90E038E028E233
:100970003BB92BB90197E1F71BB883E00E948517BB
:100980008CEF0E9485178FEF0E9485178FE30E94DE
:1009900085178FEC0E94851783EF0E9485178CEFD7
:1009A0000E9485178FEF0E9485178FE30E9485179D
:1009B0008FEC0E94851783EF0E9485178CEF0E94B1
:1009C000851785ED0E9485178AEA0E94851786E9BA
:1009D0000E9485178FEF0E9485178EEF0E94851762
:1009E0008C2F86958A6A0E9485178C2F8A6A0E94AE
:1009F00085178D2F86958A6A0E9485178D2F8A6AA2
:100A00000E9485178EEFD827CD278C2F86958A6A6E
:100A10000E9485178C2F8A6A0E9485178EED0E948E
:100A200085178AEA0E9485178BEE0E9485178FEF43
:100A30000E9485178FEF0E9485178FEF0E94851700
:100A40008FEF0E9485178FEF0E9485178EE591E04A
:100A5000189FB001199F700D112480E090E050E2C2
:100A6000A8E0B8E2FB01E80FF91FE75EFE4FE08166
:100A700028E030E040E8FE2FF42319F0ABB9BBB911
:100A800002C01BB85BB9469521503109A1F7019608
:100A90008D3521E0920731F71BB880E790E038E010
:100AA00028E23BB92BB90197E1F71BB880E093E04E
:100AB00020E21BB82BB90197E1F71BB88FEF0E941A
:100AC00085178FEF0E9485170E9499170E945E1A62
:100AD00080E18BB91BB8DF91CF911F91FF90EF9010
:100AE000DF90CF90BF90AF909F908F900895CF925E
:100AF000DF92EF92FF920F931F93CF93DF93499969
:100B000035C00CE011E0F80181918F3F59F181E18E
:100B1000C82E81E0D82E99E1E92E91E0F92EC0E0AF
:100B2000DFEFF80160816F3F29F0F60140818C2FE3
:100B30000E945B04F801D1938F01F601D1936F01FC
:100B4000F7011282CF5FF2EAEF1AFEEFFF0AC4301C
:100B500041F71092100189E191E09093A3068093F0
:100B6000A20604C081E0E031F80771F6DF91CF9171
:100B70001F910F91FF90EF90DF90CF90089580919B
:100B800091069091920680399C40C0F488E08BB920
:100B9000809191069091920628E238E0803140E100
:100BA000940730F449990AC02BB93BB90196F6CFA6
:100BB00080E99CE09093920680939106089549996C
:100BC0006EC090911001292F30E04EE551E0249F36
:100BD000F001259FF00D349FF00D1124E75EFE4FCC
:100BE00082818D3A09F042C080911801811131C093
:100BF00080919306F901E45FFE4F8083F901EF5E77
:100C0000FE4F4091A006469546954083282F2D7FA4
:100C10002D3011F48E5F01C08F5F8F70809393062B
:100C2000933029F40E94BF050E9477051CC09F5F86
:100C3000909310014EE551E0949F9001959F300DE7
:100C40001124C901875E9E4F9093A3068093A2064C
:100C50000DC080910A0180939306109218018F3085
:100C6000F1F40E94BF0581E08093A106209110015C
:100C70008EE591E0289FF001299FF00D1124E75E99
:100C8000FE4F8281863959F487818575880F90855A
:100C90009575892B80930A0181E08093180108954E
:100CA00029E131E044E080E090E0F901E80FF91F2C
:100CB000108201968E3551E09507B9F74150225ABE
:100CC0003E4F4111F0CF8FEF8093110180930C01C3
:100CD0008093120180930D018093130180930E0184
:100CE0008093140180930F010895CF93C82F8FEF45
:100CF0009FEF90930101809300010E9446185C9839
:100D0000499B03C00E942B034CC089E191E0909362
:100D1000DD068093DC060E94A319811144C00E9465
:100D2000B11662E085E20E94E5158EE091E00E9436
:100D3000EF1664E086E10E94E5158091D5068130CA
:100D400019F48FEF90E004C0823029F480EF90E036
:100D50000E94EF1622C0833019F481EE90E0F8CFA4
:100D6000843019F482ED90E0F3CF853019F483ECF0
:100D700090E0EECF863019F484EB90E0E9CF873035
:100D800019F485EA90E0E4CF8EE990E00E94EF1636
:100D90008091D50690E00E94B5161092CE06499B30
:100DA000FECF80E0B0C0CC23D9F00E94B11662E043
:100DB00080E00E94E5158091E006823019F487E218
:100DC00091E002C088E191E00E94EF165C982FE369
:100DD0008BE49CE4215080409040E1F700C000008B
:100DE0000E94651A811143C00E94B11662E085E23B
:100DF0000E94E5158EE091E00E94EF1664E086E126
:100E00000E94E5158091D506813019F48FEF90E0AE
:100E100004C0823029F480EF90E00E94EF1622C0D7
:100E2000833019F481EE90E0F8CF843019F482ED2C
:100E300090E0F3CF853019F483EC90E0EECF86306C
:100E400019F484EB90E0E9CF873019F485EA90E05B
:100E5000E4CF8EE990E00E94EF168091D50690E0F5
:100E60000E94B5161092CE06499BFECF9ACF4091B4
:100E7000F6062091F0063091F106429FC001439F93
:100E8000900D112481159047D0F485E08093D5060C
:100E90000E94B11662E085E20E94E5158EE091E0C5
:100EA0000E94EF1664E086E10E94E51583EC90E075
:100EB0000E94EF161092CE06499BFECF72CFCC2334
:100EC000E1F064E080E00E94E51587E990E00E948F
:100ED000EF168091E7068B3019F481E990E002C0AB
:100EE0008BE890E00E94EF168FE39BE42CE48150A6
:100EF00090402040E1F700C000005C980E9450063E
:100F00000E94421881E0CF9108958F929F92AF92F4
:100F1000BF92CF92DF92EF92FF920F931F93CF93E6
:100F2000DF936115710519F480E090E055C17B01F4
:100F3000EC010E94B11660E080E00E94E5150E947D
:100F4000531782E392E00E94EF1660E080E60E9471
:100F5000E5158091E7068B3019F481E990E002C035
:100F60008BE890E00E94EF160E94531742E061E088
:100F700080E00E94AE0362E080E00E94E51581E01F
:100F800090E00E94FE166701570108E0A00EB11C18
:100F9000F60181916F01803211F00E946F15AC143F
:100FA000BD04B1F7D0930701C09306012091E70675
:100FB000F701828D938D2B3091F44489558960E03F
:100FC00070E0BA0155274427A0E0B0E08A019B01F8
:100FD000082B192B2A2B3B2BC901B80103C0BC01DC
:100FE00080E090E0611571058105910509F49CCFC1
:100FF000E4EAF6E0119211921192119216E0EC3CA3
:10100000F107C1F76093A4067093A5068093A60626
:101010009093A70611E0663FFFEF7F0781059105DA
:10102000A8F40E94521B663F2FEF720781059105BD
:1010300058F434E0139FF0011124EC55F94F60830C
:101040007183828393831F5F1A3028F38090EC06AC
:101050009090ED06A090EE06B090EF068091000112
:1010600090910101019609F488C080E090E00E940F
:10107000E91C8FEF9FEFDC018093D8069093D9068F
:10108000A093DA06B093DB068091000190910101F4
:101090000E94581DFC012091E706828D938D2B3014
:1010A00071F4C488D588E12CF12C7601DD24CC24A0
:1010B000A0E0B0E0C82AD92AEA2AFB2A03C06C01C2
:1010C000E12CF12C02E0C01AD108E108F108A0914E
:1010D000F606B0E0A70196010E94791F0091E30691
:1010E0001091E4062091E5063091E606600F711F2D
:1010F000821F931F0E94FE18E091DC06F091DD062E
:101100008DEC92E0ABEAB1E080839183A283B3835C
:101110004581568167817085818592858416950603
:10112000A606B70619F48C179D0731F0438754873C
:1011300065877687908B878785829682A782B0861F
:10114000D287C1878091D706848380919C06818B4A
:10115000A091F606B0E0A70196010E94791FC09009
:10116000E306D090E406E090E506F090E6066C0D0C
:101170007D1D8E1D9F1D0E9455198092EC06909238
:10118000ED06A092EE06B092EF0610929206109233
:1011900091061092CD0610929906C1E0C093A10667
:1011A0001092A0061092930610921001109218014E
:1011B00089E191E09093A3068093A2065C9840E0B9
:1011C00052E060E070E080E10E9493180E945006B7
:1011D000C093CE0681E090E0DF91CF911F910F91F7
:1011E000FF90EF90DF90CF90BF90AF909F908F9047
:1011F0000895CF92DF92EF92FF920F931F93CF93B8
:10120000DF93C090EC06D090ED06E090EE06F090F3
:10121000EF068091000190910101019609F477C0D9
:1012200080E090E00E94E91C8FEF9FEFDC0180934B
:10123000D8069093D906A093DA06B093DB06809186
:101240000001909101010E94581DFC012091E706C8
:10125000828D938D2B3079F424893589A90160E042
:1012600070E0BA0155274427A0E0B0E0842B952B0D
:10127000A62BB72B02C0A0E0B0E09C01AD0122502C
:10128000310941095109A091F606B0E00E94791F89
:101290000091E3061091E4062091E5063091E60600
:1012A000600F711F821F931F0E94FE18E091DC06E1
:1012B000F091DD068FEF9FEFDC018093D8069093CD
:1012C000D906A093DA06B093DB0683859485A585BD
:1012D000B6858093EC069093ED06A093EE06B0934E
:1012E000EF06C785D089CE010E94581D8C010E944F
:1012F000DB03882361F0B801CE01DF91CF911F910C
:101300000F91FF90EF90DF90CF900C948507C092E3
:10131000EC06D092ED06E092EE06F092EF06DF9139
:10132000CF911F910F91FF90EF90DF90CF90089594
:101330005E9A2C9A5F9A08957F928F929F92AF92B5
:10134000BF92CF92DF92EF92FF920F931F93CF93B2
:10135000DF938091000190910101019611F41FEA41
:101360005BC080E090E00E94E91C89E191E09093ED
:10137000DD068093DC060E9450061092D80610927B
:10138000D9061092DA061092DB0680910001909146
:1013900001010E94581DFC012091E706828D938D6A
:1013A0002B3079F424893589A90160E070E0BA0115
:1013B00055274427A0E0B0E0482B592B6A2B7B2B04
:1013C00003C0AC0160E070E0A091F6069A01AB01A9
:1013D0002250310941095109B0E00E94791F009162
:1013E000E3061091E4062091E5063091E606600FD1
:1013F000711F821F931F0E94FE18E091DC06F0917E
:10140000DD0680819181A281B3818D3C9240AB4AFF
:10141000B14009F0A4CF11890E94B11660E080E0CC
:101420000E94E5150E94531785EA91E00E94EF168D
:101430000E94531743E065E084E00E94AE0362E03F
:1014400080E00E94E5158BEB91E00E94EF16812F62
:1014500090E00E94B516712ED12F01E00E949809EC
:10146000D71581F062E080E00E94E5158BEB91E0FA
:101470000E94EF168D2F90E00E94B5168AE690E04C
:101480000E94EF16499969C189B12091980641E0FF
:1014900050E0222311F040E050E093B161E070E0B1
:1014A000213011F060E070E092959F70902790FBE2
:1014B000882480F8912C869EF001879EF00D969EE0
:1014C000F00D1124082E000C990B8095909588271B
:1014D000990F881F9927849F9001859F300D949FB5
:1014E000300D11242E2B3F2B232BA9F189B193B161
:1014F00092959F70902790FBAA24A0F8B12CA69EED
:10150000F001A79EF00DB69EF00D1124082E000CE0
:10151000990B809590958827990F881F9927849F0C
:101520009001859F300D949F300D11242E2B3F2B61
:10153000232BE1F68FE392E42FE08150904020408E
:10154000E1F700C00000CFEFCD0FC0939C068C2FB9
:101550000E94611501C0CD2F93B12091980661E0E2
:1015600070E0222311F060E070E089B141E050E0CA
:10157000213011F040E050E092959F70902790FB51
:10158000EE24E0F8F12CE69EF001E79EF00DF69EC9
:10159000F00D1124082E000C990B8095909588274A
:1015A000990F881F9927849F9001859F300D949FE4
:1015B000300D11242E2B3F2B232B99F193B189B1A0
:1015C00092959F70902790FBCC24C0F8D12CC69E9A
:1015D000F001C79EF00DD69EF00D1124082E000CD0
:1015E000990B809590958827990F881F9927849F3C
:1015F0009001859F300D949F300D11242E2B3F2B91
:10160000232BE1F68FE392E42FE0815090402040BD
:10161000E1F700C00000CF5FC0939C068C2F0E94B2
:1016200061157D2E4E9B02C0DC2F18CF4E9BFECF46
:101630008FE392E42FE0815090402040E1F700C01A
:1016400000001C1709F489C0C0939C068C2F0E94CF
:1016500061155C988091000190910101019609F457
:101660007CC080E090E00E94E91C89E191E09093C9
:10167000DD068093DC060E9450061092D806109278
:10168000D9061092DA061092DB0680910001909143
:1016900001010E94581DFC012091E706828D938D67
:1016A0002B3071F4C488D588E12CF12C7601DD242F
:1016B000CC24A0E0B0E0C82AD92AEA2AFB2A03C039
:1016C0006C01E12CF12C82E0C81AD108E108F10884
:1016D000A091F606B0E0A70196010E94791F009143
:1016E000E3061091E4062091E5063091E606600FCE
:1016F000711F821F931F0E94FE18E091DC06F0917B
:10170000DD0680819181A281B3818D3C9240AB4AFC
:10171000B14019F5C18BA091F606B0E0A701960182
:101720000E94791F0091E3061091E4062091E506DE
:101730003091E606600F711F821F931FDF91CF91DA
:101740001F910F91FF90EF90DF90CF90BF90AF90DF
:101750009F908F907F900C945519DF91CF911F919E
:101760000F91FF90EF90DF90CF90BF90AF909F9040
:101770008F907F9008957F928F929F92AF92BF92A9
:10178000CF92DF92EF92FF920F931F93CF93DF934D
:101790000E94B11660E080E00E94E5150E94531798
:1017A0008FE891E00E94EF160E94531743E065E036
:1017B00084E00E94AE0363E080E00E94E5158BEBBD
:1017C00091E00E94EF168091D70690E00E94B51636
:1017D0009090D706A92CBB24B39477247394DAE0B5
:1017E0008D2E0E9498098091D706A81699F063E083
:1017F00080E00E94E5158BEB91E00E94EF1680914E
:10180000D70690E00E94B51688E690E00E94EF1699
:10181000A090D706499967C189B12091980641E007
:1018200050E0222311F040E050E093B161E070E01D
:10183000213011F060E070E092959F709B259170CF
:10184000C92F20E0D22FC69FF001C79FF00DD69F71
:10185000F00D1124082E000C990B80959095882787
:10186000990F881F9927849F9001859F300D949F21
:10187000300D11242E2B3F2B232BA9F189B193B1CD
:1018800092959F709B25092F017010E0069FF00133
:10189000079FF00D169FF00D1124082E000C990BD8
:1018A000809590958827990F881F9927849F90018C
:1018B000859F300D949F300D11242E2B3F2B232B11
:1018C000E9F68FE392E42FE0815090402040E1F769
:1018D00000C000008091D706815019F08093D70690
:1018E00002C08092D70693B12091980661E070E023
:1018F000222311F060E070E089B141E050E0213036
:1019000011F040E050E092959F709B2590FBEE24F3
:10191000E0F8F12CE69EF001E79EF00DF69EF00D4A
:101920001124082E000C990B809590958827990F0B
:10193000881F9927849F9001859F300D949F300DBB
:1019400011242E2B3F2B232BB9F193B189B1929502
:101950009F709B2590FBCC24C0F8D12CC69EF00133
:10196000C79EF00DD69EF00D1124082E000C990B89
:10197000809590958827990F881F9927849F9001BB
:10198000859F300D949F300D11242E2B3F2B232B40
:10199000E1F68FE392E42FE0815090402040E1F7A0
:1019A00000C000008091D7068F5F8B3018F48093C1
:1019B000D70602C07092D7064E9913CF4E9BFECF2A
:1019C0008FE392E42FE0815090402040E1F700C087
:1019D00000008091D706981609F485C08091000117
:1019E00090910101019609F47EC080E090E00E9490
:1019F000E91C89E191E09093DD068093DC060E946A
:101A000050061092D8061092D9061092DA0610925B
:101A1000DB0680910001909101010E94581DFC019C
:101A20002091E706828D938D2B3071F4C488D58880
:101A3000E12CF12C7601DD24CC24A0E0B0E0C82A12
:101A4000D92AEA2AFB2A03C06C01E12CF12C82E09E
:101A5000C81AD108E108F108A091F606B0E0A70184
:101A600096010E94791F0091E3061091E4062091EF
:101A7000E5063091E606600F711F821F931F0E94DA
:101A8000FE18E091DC06F091DD0680819181A28153
:101A9000B3818D3C9240AB4AB14029F58091D70685
:101AA0008483A091F606B0E0A70196010E94791FF9
:101AB0000091E3061091E4062091E5063091E606D8
:101AC000600F711F821F931FDF91CF911F910F91A4
:101AD000FF90EF90DF90CF90BF90AF909F908F904E
:101AE0007F900C945519DF91CF911F910F91FF902A
:101AF000EF90DF90CF90BF90AF909F908F907F90AE
:101B000008959F92AF92BF92CF92DF92EF92FF9291
:101B10000F931F93CF93DF930E94B11660E080E094
:101B20000E94E5150E9453178CE192E00E94EF1687
:101B30000E94531743E065E084E00E94AE0362E038
:101B400080E00E94E5150E94511780EF91E00E940D
:101B5000EF160E94511763E080E00E94E5158AEDC0
:101B600091E00E94EF1664E080E00E94E51584ECAD
:101B700091E00E94EF16C1E0992493940E94980985
:101B800089B16091980621E030E0662311F020E0F1
:101B900030E093B141E050E0613011F040E050E0BE
:101BA00092959F709925092F017010E0049FB00154
:101BB000059F700D149F700D1124082E000C990BB9
:101BC000809590958827990F881F9927829FF0010B
:101BD000839FF00D929FF00D11246E2B7F2B672BAE
:101BE00009F456C089B193B192959F70992590FBE5
:101BF000EE24E0F8F12CE49EB001E59E700DF49E19
:101C0000700D1124082E000C990B80959095882753
:101C1000990F881F9927829FF001839FF00D929F53
:101C2000F00D11246E2B7F2B672BE1F62FE382E45E
:101C30009FE0215080409040E1F700C00000CF5F5E
:101C4000C43018F562E080E00E94E51580EF91E075
:101C50000E94EF16C23011F40E94511763E080E039
:101C60000E94E5158AED91E00E94EF160E9451173F
:101C700064E080E00E94E51584EC91E00E94EF169C
:101C8000C33029F40E94511703C0C3E001C0C2E071
:101C900093B16091980641E050E0662311F040E076
:101CA00050E089B121E030E0613011F020E030E017
:101CB00092959F70992590FBCC24C0F8D12CC49E9E
:101CC000B001C59E700DD49E700D1124082E000C1D
:101CD000990B809590958827990F881F9927829F47
:101CE000F001839FF00D929FF00D11246E2B7F2B3E
:101CF000672B09F45CC093B189B192959F709925C7
:101D000090FBAA24A0F8B12CA49EB001A59E700D52
:101D1000B49E700D1124082E000C990B809590959F
:101D20008827990F881F9927829FF001839FF00DC4
:101D3000929FF00D11246E2B7F2B672BE1F62FE382
:101D400082E49FE0215080409040E1F700C0000015
:101D5000DFEFDC0F71F1D13011F40E94511762E016
:101D600080E00E94E51580EF91E00E94EF168EEF73
:101D70008C0F823010F40E94511763E080E00E94C3
:101D8000E5158AED91E00E94EF16C350C23010F4C1
:101D90000E94511764E080E00E94E51584EC91E018
:101DA0000E94EF16D33031F40E94511703C0DC2F8C
:101DB00001C0D1E04E9B02C0CD2FE0CE4E9BFECFA6
:101DC0002FE382E49FE0215080409040E1F700C083
:101DD0000000D13069F4DF91CF911F910F91FF90F6
:101DE000EF90DF90CF90BF90AF909F900C94BB0B83
:101DF000D23069F4DF91CF911F910F91FF90EF9056
:101E0000DF90CF90BF90AF909F900C949C09D330FF
:101E1000F9F480919806811106C081E080939806BC
:101E20000E94211604C0109298060E942B16609101
:101E3000980680E090E0DF91CF911F910F91FF9085
:101E4000EF90DF90CF90BF90AF909F900C942820A0
:101E5000DF91CF911F910F91FF90EF90DF90CF9086
:101E6000BF90AF909F9008952F923F924F925F92B4
:101E70006F927F928F929F92AF92BF92CF92DF929A
:101E8000EF92FF920F931F93CF93DF93CDB7DEB7FF
:101E900028970FB6F894DEBF0FBECDBF1092090190
:101EA0001092080189E191E09093DD068093DC06B1
:101EB00085ED93E090939E0680939D068FEF9FEFB4
:101EC000DC018093D8069093D906A093DA06B093EC
:101ED000DB060E9450060E94531760E080E00E94DB
:101EE000E51581E791E00E94EF160E94531743E049
:101EF00065E084E00E94AE0311E0612F80E00E9463
:101F0000E51586E092E00E94EF161F5F1630A9F7F4
:101F100063E080E00E94E51582E691E00E94EF1602
:101F200000E010E0C8010E94581D7C01009799F064
:101F3000FC01808181110FC08091080190910901FD
:101F4000892BC9F563E080E00E94E5158CE491E0FF
:101F50000E94EF1605C2C7010E94DB03811105C074
:101F6000C7010E94F1038823B9F0E0910801F091C4
:101F70000901EE0FFF1F80919D0690919E06E80FCC
:101F8000F91F118300838091080190910901019646
:101F900090930901809308010F5F1F4F8091080102
:101FA00090910901883C91053CF60039F1E01F074A
:101FB00009F0B8CFC1CF63E080E00E94E51586E369
:101FC00091E00E94EF16809108019091090102971B
:101FD0001CF0A12CB12C5DC02091080130910901A9
:101FE0004091060150910701E0919D06F0919E06F7
:101FF00000E010E080E090E062C08701000F111F58
:10200000E0919D06F0919E06E00FF11F8081918185
:102010000E94581D48E050E0BC01CE0101960E948C
:10202000A61FE0919D06F0919E06EC0DFD1D80819E
:1020300091810E94581D48E050E0BC01CE010196FC
:102040000E94991F97FF12C0E0919D06F0919E0695
:10205000DF01A00FB11F8D919C911197EC0DFD1D1B
:10206000208131812D933C93918380832FEFE21A5D
:10207000F20A82E0C80ED11C8091080190910901FA
:102080008A199B09E816F9060CF4B7CF9FEFA91A35
:10209000B90A80910801909109010197A816B90623
:1020A0000CF09ACFC12CD12CEE24E394F12CE4CF88
:1020B000619171916417750709F48C01019682177B
:1020C0009307B4F3EE24EA94FE2CDD24D3940E940B
:1020D0009809499945C189B12091980641E050E09D
:1020E000222311F040E050E093B161E070E0213034
:1020F00011F060E070E092959F709D2590FB222486
:1021000020F8312C269EF001279EF00D369EF00D12
:102110001124082E000C990B809590958827990F13
:10212000881F9927849F9001859F300D949F300DC3
:1021300011242E2B3F2B232BC1F189B193B1929502
:102140009F709D2590FB442440F8512C469EF00141
:10215000479EF00D569EF00D1124082E000C990B91
:10216000809590958827990F881F9927849F9001C3
:10217000859F300D949F300D11242E2B3F2B232B48
:10218000E1F6EFE3F2E42FE0E150F0402040E1F728
:1021900000C000000F5F1F4F80910801909109015E
:1021A0000817190711F400E010E093B12091980688
:1021B00061E070E0222311F060E070E089B141E05D
:1021C00050E0213011F040E050E092959F709D2545
:1021D00090FB662460F8712C669EF001679EF00DFE
:1021E000769EF00D1124082E000C990B8095909589
:1021F0008827990F881F9927849F9001859F300D0C
:10220000949F300D11242E2B3F2B232BB9F193B12A
:1022100089B192959F709D2590FB882480F8912C20
:10222000869EF001879EF00D969EF00D1124082EDB
:10223000000C990B809590958827990F881F9927F6
:10224000849F9001859F300D949F300D11242E2B7B
:102250003F2B232BE1F68FE392E4EFE08150904097
:10226000E040E1F700C000000150110917FF06C06F
:102270000091080110910901015011094E992FC0D8
:102280004E9BFECFFFE322E48FE0F15020408040E0
:10229000E1F700C00000000F111FE0919D06F091D2
:1022A0009E06E00FF11F808191810E94581D7C01E4
:1022B0000E94F103882331F0C7010E94E91C0E94AB
:1022C000340F4EC080919D0690919E06FC01E00F58
:1022D000F11FB701808191810E94850741C00E15D1
:1022E0001F0509F4F4CEE0919D06F0919E06C80109
:1022F000880F991FE80FF91F808191810E94581D56
:102300007C0163E080E00E94E515C7010E94F103B3
:10231000882319F086E090E002C081E090E00E94FE
:10232000FE16570198E0E90EF11CC12CF5018191D0
:102330005F01803219F00E946F15C394EA14FB0408
:10234000A9F7EC2CF12C20E1E216F1043CF480E238
:102350000E946F15FFEFEF1AFF0AF5CF7801B7CE95
:1023600028960FB6F894DEBF0FBECDBFDF91CF9198
:102370001F910F91FF90EF90DF90CF90BF90AF90A3
:102380009F908F907F906F905F904F903F902F9095
:102390000895CF92DF92EF92FF920F931F93CF9306
:1023A000DF9389E191E09093DD068093DC068FEF67
:1023B0009FEFDC018093D8069093D906A093DA06AC
:1023C000B093DB0680E090E00E94E91C8FEF9FEF66
:1023D0009093010180930001CFEFDFEF00E010E068
:1023E000C8010E94581D7C01009709F48FC0FC01B0
:1023F0008081882309F491C0C7010E94DB038823F0
:1024000029F0CF3FFFEFDF0709F4E8014BE050E090
:1024100060E770E0C7010E948B1F892B09F076C02E
:1024200010930101009300012091E706F701828DCE
:10243000938D2B3079F424893589A90160E070E00F
:10244000BA0155274427A0E0B0E0482B592B6A2B4E
:102450007B2B03C0AC0160E070E0A091F6069A010E
:10246000AB012250310941095109B0E00E94791FA6
:10247000C090E306D090E406E090E506F090E60612
:102480006C0D7D1D8E1D9F1D0E94FE18E090DC06C8
:10249000F090DD06F70180819181A281B3818D3CAE
:1024A0009240AB4AB14051F5F70184818093D70641
:1024B000818980939C060E9461155C98F701858153
:1024C0009681A781B0858093EC069093ED06A0934A
:1024D000EE06B093EF06D184F2848D2D9F2D0E94DD
:1024E000581D009739F00E94DB03882319F0CD2D89
:1024F000DF2D13C080E090E00E94E91C80E090E0B6
:102500000E94E91CCF3FFFEFDF07E1F40F5F1F4F91
:10251000003921E0120709F063CFCF3F8FEFD807D2
:1025200089F4F8940E94340F49991BC08091CE061B
:10253000882331F080916E00816080936E00E89A6C
:1025400078940FC0CE010E94581DBC01CE01DF91CE
:10255000CF911F910F91FF90EF90DF90CF900C944F
:102560008507DF91CF911F910F91FF90EF90DF9042
:10257000CF9008954F925F926F927F928F929F9229
:10258000AF92BF92CF92DF92EF92FF920F931F9381
:10259000CF93DF930E949809499B22C08FEF90E070
:1025A000499BBBC10197E1F780916E008E7F8093BC
:1025B0006E00E8981092CE061092A106DF91CF919E
:1025C0001F910F91FF90EF90DF90CF90BF90AF9051
:1025D0009F908F907F906F905F904F900C942B0303
:1025E000309B7FC14E9B58C089B14091980661E0F5
:1025F00070E0442311F060E070E093B121E030E03E
:10260000413011F020E030E092959F70A1E09A27D0
:1026100090FBAA24A0F8B12CA29EA001A39E500D6D
:10262000B29E500D1124082E000C990B80959095A8
:102630008827990F881F9927869FF001879FF00DA3
:10264000969FF00D11244E2B5F2B452B29F593B14E
:1026500089B192959F70A927A0FBCC24C0F8D12CFA
:10266000C69EA001C79E500DD69E500D1124082E67
:10267000000C990B809590958827990F881F9927B2
:10268000829FB001839F700D929F700D1124462B85
:10269000572B452B09F425C14E9910C084E690E0D4
:1026A00021E04E9920E00197E1F7222309F435C19A
:1026B0004E9BFECFF8940E94340F10C129B1609157
:1026C000980641E050E0662311F040E050E033B15D
:1026D00081E090E0613011F080E090E032953F7051
:1026E000A1E03A2730FBEE24E0F8F12CE89EB0019F
:1026F000E99E700DF89E700D1124022E000C330B14
:10270000209530952227330F221F3327249FF00175
:10271000259FF00D349FF00D11246E2B7F2B672B1E
:1027200009F45DC064E670E0FF24F394EE24E394C2
:1027300029B133B132953F703E25032F017010E06F
:10274000089FF001099FF00D189FF00D1124022E33
:10275000000C330B209530952227330F221F33278F
:10276000249FD001259FB00D349FB00D11249F01EF
:102770002A2B3B2B232B09F4F12C61507109C1F654
:10278000FF2009F4CAC0A1E029B133B132953F70EE
:102790003A273170C32F30E0D32FC89FF001C99F73
:1027A000F00DD89FF00D1124022E000C330B209554
:1027B00030952227330F221F3327249FB001259FF6
:1027C000700D349F700D11249F01262B372B232B66
:1027D000D9F6F8940E94810D49999FC091C033B1F8
:1027E00029B132953F70A327A0FB882480F8912C53
:1027F000849EB001859E700D949E700D1124022E52
:10280000000C330B209530952227330F221F3327DE
:10281000289FF001299FF00D389FF00D11249B0196
:102820002E2B3F2B232B09F478C064E670E0C1E027
:10283000D1E033B129B132953F703D2730FB66249A
:1028400060F8712C649EF001659EF00D749EF00D91
:102850001124022E000C330B209530952227330FC4
:10286000221F3327289FD001299FB00D389FB00D1C
:1028700011249F012A2B3B2B232B09F4C0E061502C
:102880007109B9F6CC2309F448C0A1E033B129B1EC
:1028900032953F703A2730FB442440F8512C449E37
:1028A000F001459EF00D549EF00D1124022E000CF7
:1028B000330B209530952227330F221F3327289F73
:1028C000B001299F700D389F700D11249F01262B98
:1028D000372B232BD9F6F8940E94F908499B12C094
:1028E0001CC08091CE06811118C08FEF90E04999ED
:1028F00014C00197E1F7F89481E00E9475068111F8
:102900000E94C9118091CE06882331F080916E001B
:10291000816080936E00E89A7894DF91CF911F9147
:102920000F91FF90EF90DF90CF90BF90AF909F906E
:102930008F907F906F905F904F90089595E09A955B
:10294000F1F708950895359BFECFA8940895089552
:102950003C983D984498459888279927349B08953A
:10296000359B089581E0089581E00895359BEBDF64
:102970003C9AE4DF2AD0089581E008953D9ADEDF95
:102980003C98DCDF3D98DADF359BDDDF3C9AD6DF13
:102990001CD0089581E008958F938F918F93359B7C
:1029A000D2DF3C9ACBDF11D0882311F404D0F5CFCD
:1029B0000F90089508953D9A3C9AC0DF3D98BEDF80
:1029C000359BC1DF3C98BADF08950894881F01C089
:1029D000880FB9F03D9A00000000000018F40000D4
:1029E0003C9802C03C9A00C0A9DF3D98A894000022
:1029F00000000000359BA7DF12F4882712C09EDF7D
:102A0000E7CF3D9A000000003C9898DF992788277F
:102A10003D98A8940000359B96DF7AF3349B81E0C3
:102A20008DDF000000003D9A089581E0089571E077
:102A30003D9A3C9800000000000080DF3D987EDF5A
:102A4000A894000000000000359B7DDFB2F0889460
:102A500034990894771F60F73D9A803011F03C98C4
:102A600001C03C9A00000000000068DF3D98A89477
:102A700000000000359B67DF61DF000000003D9A29
:102A8000872F9927089580E20895CF93C82F88E76C
:102A90000E94B61480E00E94E5148C2F0E94E51479
:102AA000CF910C94DB14CF93C82F88E70E94B61403
:102AB00080E40E94E5148C2F0E94E514CF910C94C1
:102AC000DB14CF93C82F81E890E00E9445158C2F2E
:102AD00090E00E944515C093D206CF9108950F93C0
:102AE0001F93CF93DF93C82F88E70E94B61480E42A
:102AF0000E94E51485E0C89FE001112400E010E089
:102B0000C05AD109FE01E00FF11FE95CFB4FE491CF
:102B10008091D0068111E0958091D306813011F02B
:102B200080E001C080E891E02091D106213009F0D9
:102B300090E0E92B8E2B0E94E5140F5F1F4F0530AC
:102B4000110501F781E09091D006913009F080E005
:102B5000982F91958091D306813011F020E001C02B
:102B600020E881E03091D106313009F080E0892BF6
:102B7000822B0E94E514DF91CF911F910F910C944D
:102B8000DB14CF93DF93EC018991882319F00E9425
:102B90006F15FACFDF91CF91089581E09091D00623
:102BA000911180E08093D006089581E09091D30642
:102BB000911180E08093D306089581E09091D10631
:102BC000911180E08093D1060895CF93DF93C82FB1
:102BD000862F90E080559F4F0E944515C695C6955B
:102BE000C69588E0C89FE001112420919F06CE0180
:102BF00088709927820F911D0E944515CE0124E00F
:102C0000959587952A95E1F74096DF91CF910C94A1
:102C100045150F931F93CF93C0E06C2F80E00E9467
:102C2000E51504E810E080E00E94531501501109F9
:102C3000D1F7CF5FC83089F7CF911F910F910C94D6
:102C4000DB1481EA90E00E94451588EC90E00E9438
:102C500045150C94091680EA90E00E94451580EC19
:102C600090E00E9445150C9409160E94A8148EEA63
:102C700090E00E94451586EA90E00E94451585ED9A
:102C800090E00E94451580E890E00E94451588EA92
:102C900090E00E9445158FE390E00E94451583ED7A
:102CA00090E00E94451580E090E00E94451580E488
:102CB00090E00E9445158DE890E00E94451584E162
:102CC00090E00E94451580E290E00E94451580E06A
:102CD00090E00E94451580EA90E00E94451588EC3E
:102CE00090E00E9445158AED90E00E94451582E132
:102CF00090E00E94451581E890E00E9445158FEC18
:102D000090E00E94451589ED90E00E94451581EF05
:102D100090E00E9445158BED90E00E94451580E4FF
:102D200090E00E94451584EA90E00E94451586EAED
:102D300090E00E9445158FEA90E00E9445158FECC7
:102D40008093D20680939C0682E080939F06109227
:102D5000D0061092D3061092D1060C942B160C9428
:102D600035160C9409160C94C115CF93DF93CDB78B
:102D7000DEB72A970FB6F894DEBF0FBECDBF4AE08C
:102D8000BE016F5F7F4F0E94BA1FCE0101960E9465
:102D9000C1152A960FB6F894DEBF0FBECDBFDF91E6
:102DA000CF910895CF93DF93CDB7DEB72A970FB6B3
:102DB000F894DEBF0FBECDBF2AE0AE014F5F5F4F7C
:102DC0000E94C51FCE0101960E94C1152A960FB61A
:102DD000F894DEBF0FBECDBFDF91CF910895CF93A2
:102DE000DF93FC018491EF012196882321F00E945A
:102DF0006F15FE01F7CFDF91CF910895EF92FF920B
:102E00000F931F93CF93DF937C018CE08E9D800105
:102E10008F9D100D1124C0E0D0E08FEFE816F10473
:102E200039F0FE01E00FF11FED51FC4FE49101C0BC
:102E3000E0E08091D0068111E0958091D306813049
:102E400011F080E001C080E891E02091D1062130AE
:102E500009F090E0E92B8E2B0E9453152196CC307F
:102E6000D105D9F681E09091D006913009F080E04B
:102E7000982F91958091D306813011F020E001C008
:102E800020E881E03091D106313009F080E0892BD3
:102E9000822BDF91CF911F910F91FF90EF900C94B7
:102EA00053150C94CD150C94D5150C94DD15EF929B
:102EB000FF920F931F93CF93E12CF12CC0E06C2F66
:102EC00089E10E94E51500E010E0F801EE0DFF1D1C
:102ED000EF58FD4F84910E9453150F5F1F4F0A3426
:102EE000110599F7CF5F8AE4E80EF11CC53039F778
:102EF000CF911F910F91FF90EF900895549A539A9C
:102F0000559A50981092D406089528E030E090E841
:102F100040E258E068E2782F792319F05BB96BB989
:102F200002C01BB84BB9969521503109A1F71BB8C7
:102F30000895CF93DF931F92CDB7DEB788E08BB9AA
:102F4000198280E028E238E09981983051F02BB95D
:102F500099B1880F9170892B3BB999819F5F9983B3
:102F6000F3CF0F90DF91CF91089588E38BB988E17B
:102F70008BB9089528E100002A95E9F70197D1F768
:102F800008950895DF92EF92FF920F931F93CF93CE
:102F9000DF93082FC8E0D0E010E880E2F82E98E038
:102FA000E92E28E2D22E802F812339F0EBB881E080
:102FB00090E00E94BA17DBB806C01BB881E090E031
:102FC0000E94BA17FBB81695219769F781E090E047
:102FD0000E94BA171BB8DF91CF911F910F91FF90FC
:102FE000EF90DF9008959091D406911103C00E9454
:102FF000C21702C00E94851780E00895FF920F93C8
:103000001F93CF93DF931F92CDB7DEB788E08BB9C4
:1030100081E090E00E94BA17198210E008E288E08F
:10302000F82E8981883091F00BB981E090E00E9400
:10303000BA1789B1110F8170182BFBB881E090E0AD
:103040000E94BA1789818F5F8983EBCF812F0F9000
:10305000DF91CF911F910F91FF9008958091D40639
:10306000811102C00C94FE170C94991788E38BB958
:1030700081E090E00E94BA1788E18BB981E090E08E
:103080000C94BA1781E08093D40608951092D40668
:1030900008950E94991787FDFCCF0895CF92DF9283
:1030A000EF92FF92CF93C82F6A017B010090D60662
:1030B00004C0CC0CDD1CEE1CFF1C0A94D2F78FEF71
:1030C0000E9485178C2F80640E9485178F2D0E9487
:1030D00085178E2D0E9485178D2D0E9485178C2DAA
:1030E0000E94851785E90E9485178FEF0E9485173A
:1030F0000E9449188093E10681508E3FC8F3CF911A
:10310000FF90EF90DF90CF900895AB01BC0110923B
:10311000DF0681E10E944E180E9499178093E20613
:103120008E3FD1F70895CF92DF92EF92FF92CF9327
:10313000DF93C82F6A017B018091DE06811113C0E5
:103140008FEE8C0F823040F088EE8C0F823020F0B2
:1031500080EE8C0F823038F489E0CC0CDD1CEE1C44
:10316000FF1C8A95D1F78FEF0E94F3178C2F806494
:103170000E94F3178F2D0E94F3178E2D0E94F317D4
:103180008D2D0E94F3178C2D0E94F317C83011F477
:1031900087E801C085E90E94F317F12C0E942E18E0
:1031A000D82F8F3F21F4FA94F110F8CF1DC0811170
:1031B0001BC0CA33C9F40E942E181092D60686FF8F
:1031C00005C081E08093DE0682E006C01092DE0634
:1031D00089E08093D60681E08093E0060E942E1855
:1031E0000E942E180E942E180E942E188D2FDF91FB
:1031F000CF91FF90EF90DF90CF900895CF92DF9224
:10320000EF92FF92CF93DF93C090D806D090D9066B
:10321000E090DA06F090DB06C616D706E806F90657
:10322000E1F16B017C016093D8067093D90680931D
:10323000DA069093DB065C988FEF0E94F3178FEF0E
:103240000E94F317B701A60181E10E949318811132
:1032500025C0C0E0D0E00E942E188E3F29F02197B3
:10326000D1F75C9A80E01AC0E12CF12CC091DC0609
:10327000D091DD06CE0DDF1D0E942E1888838FEFC2
:10328000E81AF80AE11482E0F80681F70E942E1885
:103290000E942E180E942E185C9A81E0DF91CF9137
:1032A000FF90EF90DF90CF900895CF93DF93AB0125
:1032B000BC0188E10E94931881113DC05C988EEF9B
:1032C0000E94F317C0E0D0E0E091DC06F091DD064B
:1032D000EC0FFD1F80810E94F3172196C11582E03B
:1032E000D80791F78FEF0E94F3178FEF0E94F31723
:1032F0000E942E18982F9F71953079F4C0E0D0E08D
:103300000E942E18811103C02196D1F706C05C9A45
:103310008FEF0E94F3175C9808C05C9A0CC09E0166
:103320002F5F3F4F2196C9F3E9010E942E18882391
:10333000B1F35C9A81E0DF91CF910895AB01BC01BC
:1033400080E10C949318CF92DF92EF92FF920F934B
:103350001F93CF93DF931092D50685E08093D70615
:103360000E947E170E944618499998C080E285B94C
:103370005C9A8FE097E2A0E0B0E08093D80690934B
:10338000D906A093DA06B093DB06C4E60E9436188D
:10339000C150E1F75C98CCE08FEF0E94F317C15069
:1033A000D9F700E018E040E050E0BA0180E00E9468
:1033B00093180150110931F415B85C9A81E080939B
:1033C000D5066DC0813079F7CCE08FEF0E94F317FE
:1033D000C150D9F7C1E0D2E04AEA51E060E070E0C4
:1033E00088E00E9493188A3A49F481E08093E006CD
:1033F000C12CD12CE12C80E4F82E09C08130A9F336
:10340000219751F71092E006C12CD12C7601CCE027
:103410008FEF0E94F317C150D9F701E012E040E0AE
:1034200050E0BA0187E30E949318B701A60189E230
:103430000E9493180150110931F482E08093D5065F
:1034400015B85C9A2CC08111EACF1092DE0689E093
:103450008093D6068091E006813081F040E050E014
:10346000BA018BE30E94931860E072E080E090E084
:103470000E949E1915B85C9AC1E011C0C5E6D0E063
:103480008FEF0E94F31740E050E0BA018AE30E94F8
:103490009318219719F38111F3CFE0CFC0E08C2F5F
:1034A000DF91CF911F910F91FF90EF90DF90CF9020
:1034B000089580E285B9089515B808950E94991776
:1034C000499902C08F3FD1F708958F929F92AF9292
:1034D000BF92CF92DF92EF92FF921F93CF93DF9331
:1034E00060E070E0CB010E94FE18E091DC06F091F4
:1034F000DD0680818D7F893E51F1DF01A250BE4FF4
:103500008D919C9185359A4A11F086E014C0E25461
:10351000FE4F84818093E70660857185828593855F
:103520000E94FE18E091DC06F091DD0680818D7F1F
:10353000893E29F083E08093D50680E0A7C0809182
:10354000E7068B3021F0863011F084E0F4CFC09193
:10355000DC06D091DD06438554855093F1064093F7
:10356000F00615851093F60686859785C48CD58C54
:10357000E68CF78CC80ED91EE11CF11CC092F20635
:10358000D092F306E092F406F092F5068091E706F9
:10359000863019F4A689B78902C0ACA1BDA12089E3
:1035A00030E02A9FB0012B9F700D3A9F700D1124BF
:1035B00046015701860E971EA11CB11C8092E3069E
:1035C0009092E406A092E506B092E6068630D9F025
:1035D0008CA59DA5AEA5BFA59C01AD0122503109CA
:1035E00041095109A12FB0E00E94791F860E971E54
:1035F000A81EB91E8092E8069092E906A092EA06FB
:10360000B092EB0624C00E946A1FC60ED71EE81EA9
:10361000F91EC092E806D092E906E092EA06F0921E
:10362000EB068189928935E0880F991F3A95E1F779
:10363000BA010E94341FC60ED71EE11CF11CC092B5
:10364000E306D092E406E092E506F092E606812FCA
:1036500090E020E031E0320F8130910521F0969525
:103660008795232FF7CF2093F7068091E806909156
:10367000E906A091EA06B091EB068093EC069093E0
:10368000ED06A093EE06B093EF0681E0DF91CF91B7
:103690001F91FF90EF90DF90CF90BF90AF909F90E1
:1036A0008F9008954F925F926F927F928F929F9228
:1036B000AF92BF92CF92DF92EF92FF92CF93209181
:1036C000E706263039F488248A94982CA12CB12C52
:1036D00021E007C088248A94982CA82C2FE0B22ED1
:1036E00022E004C0660F771F881F991F2A95D2F722
:1036F0002091F0063091F10640E050E00E94481F12
:103700006B017C018091F2069091F306A091F40682
:10371000B091F50629013A01480E591E6A1E7B1E1A
:10372000CAE0C301B2010E94FE18882311F0C15003
:10373000C1F78091DC069091DD06FC01EC0DFD1DCA
:1037400080819181A281B381BC01CD016821792161
:103750008A219B21CF91FF90EF90DF90CF90BF9077
:10376000AF909F908F907F906F905F904F90089553
:103770004F925F926F927F928F929F92AF92BF9281
:10378000CF92DF92EF92FF92CF9388EEC82E83E024
:10379000D82EE12CF12CC701B6010E94521B6115F5
:1037A00071058105910591F030EAC31636E8D3061C
:1037B00031E0E306F10431F02FEFC21AD20AE20A37
:1037C000F20AE9CF60E070E0CB0151C040EAC416D4
:1037D00046E8D40641E0E406F10409F448C08091CB
:1037E000E706863011F481E001C082E0A70196016E
:1037F00004C0220F331F441F551F8A95D2F7CA01F8
:10380000B9012091F0063091F10640E050E00E94AD
:10381000481F2B013C018091F2069091F306A09184
:10382000F406B091F50649015A01880E991EAA1EA8
:10383000BB1ECAE0C501B4010E94FE18882311F026
:10384000C150C1F78091DC069091DD06FC01E40DCA
:10385000F51D8FEF90E0A0E0B0E080839183A2831C
:10386000B383C501B4010E945519C701B601CF91B8
:10387000FF90EF90DF90CF90BF90AF909F908F9090
:103880007F906F905F904F9008958F929F92AF922C
:10389000BF92CF92DF92EF92FF920F931F93CF933D
:1038A000DF93EC0155E0CC0FDD1F5A95E1F78E0157
:1038B000012F112706952091F606622F70E0C801AE
:1038C0000E94341F7B018091EC069091ED06A0913F
:1038D000EE06B091EF06672B09F44EC03091E70673
:1038E000363071F48090E8069090E906A090EA06E0
:1038F000B090EB0688159905AA05BB0509F45AC0D6
:103900008090E3069090E406A090E506B090E6066D
:10391000BC01CD01681979098A099B0930E040E0B2
:1039200050E00E94481FCA01B9016E5F7F4F8F4F60
:103930009F4FC12CD12C0E94521B2FEFC21AD20ACA
:10394000CE14DF04C1F79B01AC01225031094109BB
:103950005109A091F606B0E00E94791F8090E3061D
:103960009090E406A090E506B090E606DC01CB015D
:10397000880D991DAA1DBB1D9801322F2227330FD8
:10398000C21BD30B4091F6064E9D90014F9D300D0A
:103990001124021B130BBC01CD01600F711F811D8F
:1039A000911D0E94FE188091DC069091DD068C0F1F
:1039B0009D1F02C080E090E0DF91CF911F910F9199
:1039C000FF90EF90DF90CF90BF90AF909F908F903F
:1039D00008950F931F93FC01892B49F48091E80609
:1039E0009091E906A091EA06B091EB0639C0938563
:1039F000892F807194FF3DC02091E706828D938DC1
:103A00002B3079F424893589A90160E070E0BA018E
:103A100055274427A0E0B0E0842B952BA62BB72B8D
:103A200002C0A0E0B0E00097A105B105B9F29C0189
:103A3000AD012250310941095109A091F606B0E0CB
:103A40000E94791F0091E3061091E4062091E5069B
:103A50003091E606DC01CB01800F911FA21FB31F3E
:103A60008093EC069093ED06A093EE06B093EF06DC
:103A700081E01F910F910895FC01892BB1F08081A5
:103A8000882399F0853E89F08E3221F481818E322F
:103A900019F00BC0853049F083858E3131F08F30BD
:103AA00021F0883211F0CF01089580E090E0089570
:103AB0000E94451C0C943C1D00000000000000000A
:103AC0000000000000000000000008950000000059
:103AD000000000002091D7062A95F1F70895AF93D2
:103AE000AFB7AF93BF932F93A091CD062091CC0693
:103AF000A22BA8B9A4EBA6BD20E0E8DFA091CC06DC
:103B0000A8B9B091A106BB2341F02093CD062F9117
:103B1000BF91AF91AFBFAF911895A8E2ABB9A9B172
:103B2000A170AA0F2A2FA8E0ABB9A0919106B0917D
:103B300092061196A0939106B0939206A03989F44B
:103B4000BC3079F4A1E0A093A106CF93C0E7A8E030
:103B5000B8E2BBB9B8E0BBB9AA95D1F7CA95B9F735
:103B6000CF912093CD062F91BF91AF91AFBFAF9171
:103B700018952F932FB72F9330995BC03F933091B7
:103B8000990626B124702327E1F326B124702093EF
:103B9000990628E02A95F1F700004F935F936F9301
:103BA0007F938F93EF93FF9360E0E091A206F091F3
:103BB000A3063DE541E00DC05091990676B17470C1
:103BC0007527E1F376B17470709399067EE07A956B
:103BD000F1F727E081E079B17470D9F400000000BA
:103BE0007BE17A95F1F776B17470509199067093F4
:103BF0009906752776957695880F872B2A9559F71C
:103C0000853D09F461E06030B9F281933150404064
:103C100099F69F93AF93BF930E94DF05BF91AF9139
:103C20009F91FF91EF918F917F916F915F914F9154
:103C30003F912F912FBF2F91189581E00E94400353
:103C40008FEF80931501CBE80E94BA12309B03C01E
:103C50000E945C1AF9CF0E94591A83B18F7090911B
:103C60000B01891759F180930B01883049F084309A
:103C700009F4F1C0823009F4F0C08130F9F4EFC0EA
:103C800082E09091A006890FE82FE770E695F0E0BA
:103C9000E459FF4FE49180FFE295EF708E2F88701A
:103CA00009F0E86FE90FE53C08F0DBC0E093A006FF
:103CB0008091A0068C3810F0C093A0068091CE06AB
:103CC000882309F4C1CF8091A106882309F4BCCFD1
:103CD000F894809193068F5F8F7080939306209164
:103CE000A006269526952093CF0690E030E1239FED
:103CF000800D911D112490939B0680939A0600904D
:103D0000F70602C0969587950A94E2F790931701FB
:103D100080931601880F991F880F991FFC01EC559D
:103D2000F94F80819181A281B38180939406909311
:103D30009506A0939606B0939706809115012817D3
:103D4000B9F02093150164E08CE00E94E51587E846
:103D500091E00E94EF168091CF068A3020F483E034
:103D600091E00E94B3168091CF0690E00E94B516B4
:103D70008091930690910C01981306C02091110137
:103D80009091CF06291741F190910D01891306C03A
:103D9000209112019091CF062917F1F090910E0118
:103DA000891306C0209113019091CF062917A1F025
:103DB00090910F01891306C0209114019091CF06B4
:103DC000291751F090911001891308C090911501A5
:103DD0008091CF06981302C00E94770580919406C7
:103DE00090919506A0919606B09197060297A10929
:103DF000B109AC01BD010090F70604C0440F551F86
:103E0000661F771F0A94D2F78091E3069091E4062B
:103E1000A091E506B091E606840F951FA61FB71F77
:103E20002091F60630E02150310940919A065091D8
:103E30009B0624233523BC01CD01620F731F811D16
:103E4000911D0E9485181092920610929106109270
:103E5000A1067894F9CE84E014CF86E012CF80E0FA
:103E600010CF1092A00624CFAA1BBB1B51E107C0A4
:103E7000AA1FBB1FA617B70710F0A61BB70B881FFA
:103E8000991F5A95A9F780959095BC01CD01089589
:103E9000A1E21A2EAA1BBB1BFD010DC0AA1FBB1F4E
:103EA000EE1FFF1FA217B307E407F50720F0A21BC0
:103EB000B30BE40BF50B661F771F881F991F1A942D
:103EC00069F760957095809590959B01AC01BD0157
:103ED000CF010895A29FB001B39FC001A39F700DB1
:103EE000811D1124911DB29F700D811D1124911D02
:103EF00008950E946A1FA59F900DB49F900DA49FE6
:103F0000800D911D11240895FB01DC0105900D9297
:103F10000020E1F70895FB01DC014150504030F0F2
:103F20008D910590801919F40020B9F7881B990B21
:103F30000895FB01DC0104C08D910190801921F4EA
:103F400041505040C8F7881B990B0895DC01FB01D4
:103F50004150504058F049F001900D920020C1F7B7
:103F6000E61BF70B3197CF0108951C9201900020BA
:103F7000E9F7F6CFBB274A3031F4992322F4BDE2AA
:103F8000909581959F4F0C94F71FBB272A3051F4D1
:103F9000992342F4BDE290958095709561957F4F8D
:103FA0008F4F9F4F0C94D51FBB27FA01A62F621786
:103FB000710581059105330B30FB66F0AA27660F6A
:103FC000771F881F991FAA1FA21710F0A21B6395C5
:103FD0003850A9F7A05DAA3308F0A95DA19336F780
:103FE000B111B1931082CA010C941020BB27FB01C0
:103FF0005527AA27880F991FAA1FA41710F0A41BE2
:1040000083955051B9F7A05DAA3308F0A95DA1933B
:10401000009779F7B111B1931192CB010C94102054
:10402000DC01FC01672F71917723E1F7329704C01F
:104030007C916D9370836291AE17BF07C8F30895AA
:10404000F999FECF92BD81BDF89A992780B5089560
:10405000262FF999FECF1FBA92BD81BD20BD0FB6A4
:10406000F894FA9AF99A0FBE01960895F894FFCF42
:06407000FFFFFE2000002E
:00000001FF
