:100000000C94E9000C9482150C9406010C940601E2
:100010000C9406010C9406010C9406010C94060144
:100020000C9406010C9406010C9406010C94060134
:100030000C9406010C9406010C9406010C94060124
:100040000C9438150C9406010C9406010C940601CE
:100050000C9406010C9406010C9406010C94060104
:100060000C9406010C94060120000FED032153446B
:1000700049534B494920434647004E6F2053442083
:10008000696E73657274656400464154313600468A
:100090004154333200547970653A2000436F6465EF
:1000A0003A2000534420426C6F636B204552524FFC
:1000B00052004D697373696E67204D4252202020B3
:1000C00000436C7573746572203C2033326B4200C0
:1000D0004E6F742046415431362F33322020004277
:1000E0006F6F7420736563746F7220202000534417
:1000F0002063616E277420696E6974200053442068
:1001000063616E27742069646C652000452052206D
:1001100052204F205200204E6F726D616C2053446C
:1001200020636172642000202020534448432063F0
:100130006172642020202000536F7274696E672002
:1001400066696C65732E2E2E00204E6F7468696E82
:10015000672068657265212020004275696C6469BA
:100160006E67206C6973742E2E2E0053656C656368
:1001700074204E494320696D6167650054523A20EE
:100180000053656C6563742064656C61793A202066
:100190000044656C61793A20002020202020202036
:1001A000202020202020202020004E49433A2000FB
:1001B00020204170706C65205D5B20425220202021
:1001C00000534449534B32204C434420762E352E65
:1001D000350011241FBECFEFD8E0DEBFCDBF11E048
:1001E000A0E0B1E0E2E0F0E302C005900D92AA3099
:1001F000B107D9F726E0AAE0B1E001C01D92A73F00
:10020000B207E1F70E94E6150C94FF170C9400006A
:100210000E94E20E60E080E00E94E80E8AE790E033
:100220000E94380F61E081E00E94E80E89E991E0C8
:100230000E94380F4B99FECF0895CF93C82F14B862
:1002400017B81AB815B818B81BB8249A2C9A8AE3AC
:1002500087B982E38AB982E088B98BB9399A3B9A27
:10026000419A17BC14BC91E095BD85BF809369008D
:10027000109297061092D1061092D0061092CF06D7
:10028000109296061092950610929D069093A406E1
:100290001092A3061092140110921C018DE191E0BE
:1002A0009093A6068093A50680E090E00E94E9174F
:1002B000823018F480939C0607C010929C0660E080
:1002C00080E090E00E94F117CC23E9F00E949E0E9E
:1002D0000E94E20E60E080E00E94E80E81EC91E076
:1002E0000E94380F61E080E00E94E80E80EB91E010
:1002F0000E94380F2FED80E792E721508040904018
:10030000E1F700C00000CF910895FC01892B89F02E
:100310008081882379F0853E61F08F3551F08085AA
:100320008E3439F48185893421F481E092859334C7
:1003300009F080E00895FC01892B59F08081882321
:1003400049F0853E31F08F3521F0838582958170AB
:10035000089580E00895CF92DF92EF92FF920F937D
:100360001F93CF93DF938FEF9FEF909301018093C3
:1003700000010E9481136B017C01672B682B692BA4
:10038000D9F180E090E00E94B21400E010E0C801D2
:100390000E940E14EC01892B49F18881853E11F0F1
:1003A000811124C08B858F3009F1109301010093D6
:1003B00000016EE670E0CE010E944D1781E08B8750
:1003C000FD8AEC8ADB8ECA8E6091D7067091D806C2
:1003D0008091D9069091DA06DF91CF911F910F910C
:1003E000FF90EF90DF90CF900C941E110F5F1F4F86
:1003F000003981E0180759F6DF91CF911F910F91D5
:10040000FF90EF90DF90CF9008958F929F92AF92E0
:10041000BF92CF92DF92EF92FF921F93CF93DF9321
:10042000182FD62FC42F862F90E020E1429F800DF9
:10043000911D1124FC010090F60602C0F695E79587
:100440000A94E2F7EE0FFF1FEE0FFF1FE955F94F79
:10045000408151816281738122E02BB91BB82091C8
:10046000F50630E02150310982239323C090E20643
:10047000D090E306E090E406F090E50646015701CF
:10048000880E991EA11CB11C4250510961097109C5
:100490000090F60604C0440F551F661F771F0A948C
:1004A000D2F7480D591D6A1D7B1D88E10E94171067
:1004B0008FEF0E944E0F8EEF0E944E0F80EB90E068
:1004C00030E120E33BB92BB90197E1F71BB883E09A
:1004D0000E944E0F8CEF0E944E0F8FEF0E944E0F26
:1004E0008FE30E944E0F8FEC0E944E0F83EF0E940D
:1004F0004E0F8CEF0E944E0F8FEF0E944E0F8FE336
:100500000E944E0F8FEC0E944E0F83EF0E944E0F01
:100510008CEF0E944E0F85ED0E944E0F8AEA0E94DA
:100520004E0F86E90E944E0F8FEF0E944E0F8EEF06
:100530000E944E0F8C2F86958A6A0E944E0F8C2F38
:100540008A6A0E944E0F8D2F86958A6A0E944E0FEE
:100550008D2F8A6A0E944E0F8EEFD827CD278C2FC1
:1005600086958A6A0E944E0F8C2F8A6A0E944E0FCF
:100570008EED0E944E0F8AEA0E944E0F8BEE0E9473
:100580004E0F8FEF0E944E0F8FEF0E944E0F8FEF96
:100590000E944E0F8FEF0E944E0F8FEF0E944E0F62
:1005A0008EE591E0189FB001199F700D112480E035
:1005B00090E050E2A0E1B0E3FB01E80FF91FE35E39
:1005C000FE4FE08128E030E040E8FE2FF42319F0F0
:1005D000ABB9BBB902C01BB85BB946952150310914
:1005E000A1F701968D3521E0920731F71BB880E71E
:1005F00090E030E120E33BB92BB90197E1F71BB85C
:1006000080E093E020E21BB82BB90197E1F71BB81B
:100610008FEF0E944E0F8FEF0E944E0F0E94620FCD
:100620000E94271282E08BB91BB8DF91CF911F91F6
:10063000FF90EF90DF90CF90BF90AF909F908F9002
:100640000895CF92DF92EF92FF920F931F93CF9373
:10065000DF934B9935C000E111E0F80181918F3FA4
:1006600059F185E1C82E81E0D82E9DE1E92E91E077
:10067000F92EC0E0DFEFF80160816F3F29F0F6014D
:1006800040818C2F0E940502F801D1938F01F60161
:10069000D1936F01F7011282CF5FF2EAEF1AFEEFFA
:1006A000FF0AC43041F7109214018DE191E090935C
:1006B000A6068093A50604C081E0E431F80771F630
:1006C000DF91CF911F910F91FF90EF90DF90CF902E
:1006D0000895809195069091960680399C40C0F4CB
:1006E00080E18BB9809195069091960620E330E1E8
:1006F000803140E1940730F44B990AC02BB93BB9E3
:100700000196F6CF80E99CE090939606809395063B
:1007100008954B996EC090911401292F30E04EE559
:1007200051E0249FF001259FF00D349FF00D11241E
:10073000E35EFE4F82818D3A09F042C080911C0138
:10074000811131C080919706F901E05FFE4F8083EF
:10075000F901EB5EFE4F4091A30646954695408316
:10076000282F2D7F2D3011F48E5F01C08F5F8F7089
:1007700080939706933029F40E9469030E94210315
:100780001CC09F5F909314014EE551E0949F90012F
:10079000959F300D1124C901835E9E4F9093A6064C
:1007A0008093A5060DC080910E018093970610924C
:1007B0001C018F30F1F40E94690381E08093A4064C
:1007C000209114018EE591E0289FF001299FF00D02
:1007D0001124E35EFE4F8281863959F48781857545
:1007E000880F90859575892B80930E0181E0809309
:1007F0001C0108952DE131E044E080E090E0F90132
:10080000E80FF91F108201968E3551E09507B9F770
:100810004150225A3E4F4111F0CF8FEF8093150186
:10082000809310018093160180931101809317012A
:100830008093120180931801809313010895CF9340
:10084000C82F8FEF9FEF90930101809300010E94CA
:100850000F1059984B9B03C00E9408014CC08DE1BA
:1008600091E09093DC068093DB060E946C1181116D
:1008700044C00E94E20E60E080E00E94E80E8CE03E
:1008800091E00E94380F61E080E00E94E80E8091C4
:10089000D406813019F48DEF90E004C0823029F441
:1008A0008EEE90E00E94380F22C0833019F48FED55
:1008B00090E0F8CF843019F480ED90E0F3CF8530EC
:1008C00019F481EC90E0EECF863019F482EB90E0E1
:1008D000E9CF873019F483EA90E0E4CF8CE990E027
:1008E0000E94380F8091D40690E00E94FE0E109274
:1008F000D1064B9BFECF80E0B0C0CC23D9F00E9444
:10090000E20E60E080E00E94E80E8091DF06823017
:1009100019F487E291E002C086E191E00E94380F6D
:1009200059982FE38BE49CE4215080409040E1F7FC
:1009300000C000000E942E12811143C00E94E20EEE
:1009400060E080E00E94E80E8CE091E00E94380FA9
:1009500061E080E00E94E80E8091D406813019F4B5
:100960008DEF90E004C0823029F48EEE90E00E947A
:10097000380F22C0833019F48FED90E0F8CF843027
:1009800019F480ED90E0F3CF853019F481EC90E01C
:10099000EECF863019F482EB90E0E9CF873019F47E
:1009A00083EA90E0E4CF8CE990E00E94380F8091D8
:1009B000D40690E00E94FE0E1092D1064B9BFECF13
:1009C0009ACF4091F5062091EF063091F006429FB4
:1009D000C001439F900D112481159047D0F485E00C
:1009E0008093D4060E94E20E60E080E00E94E80E50
:1009F0008CE091E00E94380F61E080E00E94E80EF8
:100A000081EC90E00E94380F1092D1064B9BFECFF4
:100A100072CFCC23E1F061E080E00E94E80E85E92E
:100A200090E00E94380F8091E6068B3019F48FE831
:100A300090E002C089E890E00E94380F8FE39BE4C9
:100A40002CE4815090402040E1F700C0000059980C
:100A50000E94FA030E940B1081E0CF9108958F92BB
:100A60009F92AF92BF92CF92DF92EF92FF920F933D
:100A70001F93CF93DF936115710519F480E090E027
:100A80004CC17B01EC0160E080E00E94E80E8AEA44
:100A900091E00E94380F6701570108E0A00EB11CD9
:100AA000F60181916F01803211F00E94F00EAC14BA
:100AB000BD04B1F789E991E00E94380F61E080E060
:100AC0000E94E80E89E991E00E94380F61E080E021
:100AD0000E94E80E81E991E00E94380F8091D606CD
:100AE00090E00E94FE0ED0930B01C0930A0120916A
:100AF000E606F701828D938D2B3091F44489558958
:100B000060E070E0BA0155274427A0E0B0E08A0118
:100B10009B01082B192B2A2B3B2BC901B80103C0C1
:100B2000BC0180E090E0611571058105910509F433
:100B3000A5CFE7EAF6E0119211921192119216E018
:100B4000EF3CF107C1F76093A7067093A806809366
:100B5000A9069093AA0611E0663FFFEF7F07810583
:100B60009105A8F40E941B13663F2FEF72078105C1
:100B7000910558F434E0139FF0011124E955F94F21
:100B800060837183828393831F5F1A3028F3809080
:100B9000EB069090EC06A090ED06B090EE068091EA
:100BA000000190910101019609F488C080E090E075
:100BB0000E94B2148FEF9FEFDC018093D7069093D1
:100BC000D806A093D906B093DA06809100019091DF
:100BD00001010E942115FC012091E606828D938D72
:100BE0002B3071F4C488D588E12CF12C7601DD24FA
:100BF000CC24A0E0B0E0C82AD92AEA2AFB2A03C004
:100C00006C01E12CF12C02E0C01AD108E108F108D6
:100C1000A091F506B0E0A70196010E94421700914D
:100C2000E2061091E3062091E4063091E506600F9C
:100C3000711F821F931F0E94C710E091DB06F09185
:100C4000DC068DEC92E0ABEAB1E080839183A28375
:100C5000B38345815681678170858185928584162D
:100C60009506A606B70619F48C179D0731F0438741
:100C7000548765877687908B878785829682A7823F
:100C8000B086D287C1878091D60684838091A006E2
:100C9000818BA091F506B0E0A70196010E94421752
:100CA000C090E206D090E306E090E406F090E506FE
:100CB0006C0D7D1D8E1D9F1D0E941E118092EB06E6
:100CC0009092EC06A092ED06B092EE061092960677
:100CD000109295061092D00610929D06C1E0C09326
:100CE000A4061092A3061092970610921401109277
:100CF0001C018DE191E09093A6068093A50659987A
:100D000040E052E060E070E080E10E945C100E94F0
:100D1000FA03C093D10681E090E0DF91CF911F915B
:100D20000F91FF90EF90DF90CF90BF90AF909F908A
:100D30008F900895CF92DF92EF92FF920F931F93BF
:100D4000CF93DF93C090EB06D090EC06E090ED06D9
:100D5000F090EE068091000190910101019609F456
:100D600077C080E090E00E94B2148FEF9FEFDC012B
:100D70008093D7069093D806A093D906B093DA064D
:100D800080910001909101010E942115FC012091A8
:100D9000E606828D938D2B3079F424893589A9015B
:100DA00060E070E0BA0155274427A0E0B0E0842B52
:100DB000952BA62BB72B02C0A0E0B0E09C01AD01A3
:100DC0002250310941095109A091F506B0E00E9475
:100DD00042170091E2061091E3062091E40630915B
:100DE000E506600F711F821F931F0E94C710E091DC
:100DF000DB06F091DC068FEF9FEFDC018093D706D6
:100E00009093D806A093D906B093DA06838594858B
:100E1000A585B6858093EB069093EC06A093ED062E
:100E2000B093EE06C785D089CE010E9421158C01B2
:100E30000E948501882361F0B801CE01DF91CF9136
:100E40001F910F91FF90EF90DF90CF900C942F05A2
:100E5000C092EB06D092EC06E092ED06F092EE0620
:100E6000DF91CF911F910F91FF90EF90DF90CF9086
:100E700008955E9A2D9A5F9A08957F928F929F921D
:100E8000AF92BF92CF92DF92EF92FF920F931F9398
:100E9000CF93DF930E94E20E60E080E00E94E80EB4
:100EA00081E891E00E94380F61E080E00E94E80E46
:100EB00081E991E00E94380F8091D60690E00E946F
:100EC000FE0E9090D606A92CBB24B394772473947D
:100ED000DAE08D2E0E9439078091D606A81699F087
:100EE00061E080E00E94E80E81E991E00E94380F05
:100EF0008091D60690E00E94FE0E88E690E00E9467
:100F0000380FA090D6064B996BC189B120919C06F1
:100F100041E050E0222311F040E050E093B161E065
:100F200070E0213011F060E070E092959695977036
:100F30009B259170C92F20E0D22FC69FF001C79F3B
:100F4000F00DD69FF00D1124082E000C990B809502
:100F500090958827990F881F9927849F9001859FD6
:100F6000300D949F300D11242E2B3F2B232BB1F1EC
:100F700089B193B19295969597709B25092F017031
:100F800010E0069FF001079FF00D169FF00D112451
:100F9000082E000C990B809590958827990F881F33
:100FA0009927849F9001859F300D949F300D1124C7
:100FB0002E2B3F2B232BE1F68FE392E42FE0815081
:100FC00090402040E1F700C000008091D60681509B
:100FD00019F08093D60602C08092D60693B1209174
:100FE0009C0661E070E0222311F060E070E089B1BE
:100FF00041E050E0213011F040E050E092959695AC
:1010000097709B2590FBEE24E0F8F12CE69EF00112
:10101000E79EF00DF69EF00D1124082E000C990BA2
:10102000809590958827990F881F9927849F900114
:10103000859F300D949F300D11242E2B3F2B232B99
:10104000C1F193B189B19295969597709B2590FBCC
:10105000CC24C0F8D12CC69EF001C79EF00DD69EC0
:10106000F00D1124082E000C990B8095909588277F
:10107000990F881F9927849F9001859F300D949F19
:10108000300D11242E2B3F2B232BD9F68FE392E426
:101090002FE0815090402040E1F700C00000809197
:1010A000D6068F5F8B3018F48093D60602C07092FC
:1010B000D6064E990FCF4E9BFECF8FE392E42FE0E2
:1010C000815090402040E1F700C000008091D6069A
:1010D000981609F485C08091000190910101019654
:1010E00009F47EC080E090E00E94B2148DE191E0AE
:1010F0009093DC068093DB060E94FA031092D706D9
:101100001092D8061092D9061092DA06809100014A
:10111000909101010E942115FC012091E606828D2B
:10112000938D2B3071F4C488D588E12CF12C760195
:10113000DD24CC24A0E0B0E0C82AD92AEA2AFB2A80
:1011400003C06C01E12CF12C82E0C81AD108E1083F
:10115000F108A091F506B0E0A70196010E944217A0
:101160000091E2061091E3062091E4063091E50635
:10117000600F711F821F931F0E94C710E091DB0652
:10118000F091DC0680819181A281B3818D3C9240F7
:10119000AB4AB14029F58091D6068483A091F5062B
:1011A000B0E0A70196010E9442170091E20610915B
:1011B000E3062091E4063091E506600F711F821F5F
:1011C000931FDF91CF911F910F91FF90EF90DF90D0
:1011D000CF90BF90AF909F908F907F900C941E11F6
:1011E000DF91CF911F910F91FF90EF90DF90CF9003
:1011F000BF90AF909F908F907F9008952F923F92D5
:101200005F926F927F928F929F92AF92BF92CF9296
:10121000DF92EF92FF920F931F93CF93DF93CDB79F
:10122000DEB72A970FB6F894DEBF0FBECDBF10927F
:101230000D0110920C018DE191E09093DC068093FA
:10124000DB0689ED93E09093A2068093A1068FEFD1
:101250009FEFDC018093D7069093D806A093D90620
:10126000B093DA060E94FA0360E080E00E94E80E84
:101270008BE691E00E94380F61E080E00E94E80E6A
:101280008AE591E00E94380F00E010E0C8010E945A
:1012900021157C01009799F0FC01808181110FC01C
:1012A00080910C0190910D01892BC9F561E080E0DE
:1012B0000E94E80E89E491E00E94380F06C2C7013F
:1012C0000E948501811105C0C7010E949B018823EE
:1012D000B9F0E0910C01F0910D01EE0FFF1F80912C
:1012E000A1069091A206E80FF91F11830083809157
:1012F0000C0190910D01019690930D0180930C01CA
:101300000F5F1F4F80910C0190910D01883C91055A
:101310003CF60039F1E01F0709F0B8CFC1CF61E01A
:1013200080E00E94E80E88E391E00E94380F8091EF
:101330000C0190910D0102971CF0812C912C5DC045
:1013400020910C0130910D0140910A0150910B0147
:10135000E091A106F091A20600E010E080E090E0AC
:1013600062C08701000F111FE091A106F091A20653
:10137000E00FF11F808191810E94211548E050E02B
:10138000BC01CE0101960E946F17E091A106F09179
:10139000A206EA0DFB1D808191810E94211548E083
:1013A00050E0BC01CE0101960E94621797FF12C067
:1013B000E091A106F091A206DF01A00FB11F8D916F
:1013C0009C911197EA0DFB1D208131812D933C9357
:1013D000918380832FEFE21AF20A32E0A30EB11C50
:1013E00080910C0190910D0188199909E816F90670
:1013F0000CF4B7CF8FEF881A980A80910C01909166
:101400000D010197881699060CF09ACFA12CB12CEA
:10141000EE24E394F12CE4CF619171916417750788
:1014200009F48C01019682179307B4F3EE24EA9431
:10143000FE2C552453940E9439074B9946C189B11B
:1014400020919C0641E050E0222311F040E050E062
:1014500093B161E070E0213011F060E070E09295AE
:10146000969597709525917099871A8629853A8562
:10147000269FF001279FF00D369FF00D1124082EB6
:10148000000C990B809590958827990F881F9927B4
:10149000849F9001859F300D949F300D11242E2B39
:1014A0003F2B232BC9F189B193B1929596959770F3
:1014B000952590FB222420F8312C269EF001279EB2
:1014C000F00D369EF00D1124082E000C990B80951E
:1014D00090958827990F881F9927849F9001859F51
:1014E000300D949F300D11242E2B3F2B232BD9F63A
:1014F0003FE382E49FE0315080409040E1F700C03C
:1015000000000F5F1F4F80910C0190910D01081793
:10151000190711F400E010E093B120919C0661E0FE
:1015200070E0222311F060E070E089B141E050E00A
:10153000213011F040E050E09295969597709525F6
:1015400090FB662460F8712C669EF001679EF00D9A
:10155000769EF00D1124082E000C990B8095909525
:101560008827990F881F9927849F9001859F300DA8
:10157000949F300D11242E2B3F2B232BC1F193B1BF
:1015800089B1929596959770952590FBCC24C0F8DB
:10159000D12CC69EF001C79EF00DD69EF00D1124F1
:1015A000082E000C990B809590958827990F881F1D
:1015B0009927849F9001859F300D949F300D1124B1
:1015C0002E2B3F2B232BD9F6EFE3F2E42FE0E15053
:1015D000F0402040E1F700C000000150110917FF62
:1015E00006C000910C0110910D01015011094E9996
:1015F0002FC04E9BFECF3FE382E49FE031508040FE
:101600009040E1F700C00000000F111FE091A1061B
:10161000F091A206E00FF11F808191810E942115B7
:101620007C010E949B01882331F0C7010E94B21403
:101630000E94FE084AC08091A1069091A206FC017A
:10164000E00FF11FB701808191810E942F053DC0FD
:101650000E151F0509F4EFCEE091A106F091A20648
:10166000C801880F991FE80FF91F808191810E949E
:1016700021157C0161E080E00E94E80EC7010E9414
:101680009B01882321F083E091E00E94F20E570134
:101690004701E8E08E0E911CF50181915F018032D7
:1016A00011F00E94F00EA814B904B1F7C7010E940E
:1016B0009B01882321F085E091E00E94F20E89E9E8
:1016C00091E00E94380F7801B6CE2A960FB6F894B2
:1016D000DEBF0FBECDBFDF91CF911F910F91FF9065
:1016E000EF90DF90CF90BF90AF909F908F907F90C2
:1016F0006F905F903F902F900895CF92DF92EF927E
:10170000FF920F931F93CF93DF938DE191E090931E
:10171000DC068093DB068FEF9FEFDC018093D7061A
:101720009093D806A093D906B093DA0680E090E0B3
:101730000E94B2148FEF9FEF9093010180930001FC
:10174000CFEFDFEF00E010E0C8010E9421157C011F
:10175000009709F484C0FC018081882309F486C0C5
:10176000C7010E948501882329F0CF3FFFEFDF07E3
:1017700009F4E8014BE050E06EE670E0C7010E941A
:101780005417892B09F06BC01093010100930001DD
:101790002091E606F701828D938D2B3079F4248910
:1017A0003589A90160E070E0BA0155274427A0E01F
:1017B000B0E0482B592B6A2B7B2B03C0AC0160E0B7
:1017C00070E0A091F5069A01AB0122503109410960
:1017D0005109B0E00E944217C090E206D090E306A3
:1017E000E090E406F090E5066C0D7D1D8E1D9F1DBA
:1017F0000E94C710E091DB06F091DC0680819181A8
:10180000A281B3818D3C9240AB4AB14001F5848105
:101810008093D60685819681A781B0858093EB065B
:101820009093EC06A093ED06B093EE06E184F2846B
:10183000C7010E942115009731F00E94850188237D
:1018400011F0E70113C080E090E00E94B21480E044
:1018500090E00E94B214CF3F8FEFD807E1F40F5F02
:101860001F4F0039E1E01E0709F06ECFCF3FFFEFB9
:10187000DF0789F4F8940E94FE084B991BC0809101
:10188000D106882331F080916E00816080936E00D4
:10189000E89A78940FC0CE010E942115BC01CE01B8
:1018A000DF91CF911F910F91FF90EF90DF90CF903C
:1018B0000C942F05DF91CF911F910F91FF90EF9026
:1018C000DF90CF9008954F925F926F927F928F92A8
:1018D0009F92AF92BF92CF92DF92EF92FF920F93BF
:1018E0001F93CF93DF930E9439074B9B22C08FEF4A
:1018F00090E04B9BC3C10197E1F780916E008E7F12
:1019000080936E00E8981092D1061092A406DF91A1
:10191000CF911F910F91FF90EF90DF90CF90BF90EC
:10192000AF909F908F907F906F905F904F900C94AE
:101930000801309B87C14E9B5AC089B140919C06DB
:1019400061E070E0442311F060E070E093B121E0C9
:1019500030E0413011F020E030E09295969597709C
:10196000A1E09A2790FBAA24A0F8B12CA29EA00186
:10197000A39E500DB29E500D1124082E000C990B01
:10198000809590958827990F881F9927869FF00149
:10199000879FF00D969FF00D11244E2B5F2B452B4A
:1019A00031F593B189B1929596959770A927A0FBCF
:1019B000CC24C0F8D12CC69EA001C79E500DD69E47
:1019C000500D1124082E000C990B809590958827B6
:1019D000990F881F9927829FB001839F700D929F56
:1019E000700D1124462B572B452B09F42BC14E9912
:1019F00010C084E690E021E04E9920E00197E1F7E5
:101A0000222309F43BC14E9BFECFF8940E94FE08AE
:101A100016C129B160919C0641E050E0662311F0A7
:101A200040E050E033B181E090E0613011F080E0BF
:101A300090E0329536953770A1E03A2730FBEE24DE
:101A4000E0F8F12CE89EB001E99E700DF89E700D53
:101A50001124022E000C330B209530952227330FD2
:101A6000221F3327249FF001259FF00D349FF00D96
:101A700011246E2B7F2B672B09F45FC064E670E0A6
:101A8000FF24F394EE24E39429B133B132953695D3
:101A900037703E25032F017010E0089FF001099F69
:101AA000F00D189FF00D1124022E000C330B209521
:101AB00030952227330F221F3327249FD001259FE3
:101AC000B00D349FB00D11249F012A2B3B2B232BEB
:101AD00009F4F12C61507109B9F6FF2009F4CEC068
:101AE000A1E029B133B13295369537703A2731707C
:101AF000C32F30E0D32FC89FF001C99FF00DD89FAE
:101B0000F00D1124022E000C330B20953095222766
:101B1000330F221F3327249FB001259F700D349F60
:101B2000700D11249F01262B372B232BD1F6F8940F
:101B30000E943D074B99A2C094C033B129B13295A0
:101B400036953770A327A0FB882480F8912C849EBB
:101B5000B001859E700D949E700D1124022E000C14
:101B6000330B209530952227330F221F3327289FD0
:101B7000F001299FF00D389FF00D11249B012E2BB1
:101B80003F2B232B09F47AC064E670E0C1E0D1E07A
:101B900033B129B13295369537703D2730FB662435
:101BA00060F8712C649EF001659EF00D749EF00D3E
:101BB0001124022E000C330B209530952227330F71
:101BC000221F3327289FD001299FB00D389FB00DC9
:101BD00011249F012A2B3B2B232B09F4C0E06150D9
:101BE0007109B1F6CC2309F449C0A1E033B129B1A0
:101BF0003295369537703A2730FB442440F8512C03
:101C0000449EF001459EF00D549EF00D1124022ECD
:101C1000000C330B209530952227330F221F3327DA
:101C2000289FB001299F700D389F700D11249F01CE
:101C3000262B372B232BD1F6F8940E949A064B9B28
:101C400012C01CC08091D106811118C08FEF90E0A6
:101C50004B9914C00197E1F7F89481E00E941F04AA
:101C600081110E947D0B8091D106882331F08091F3
:101C70006E00816080936E00E89A7894DF91CF9136
:101C80001F910F91FF90EF90DF90CF90BF90AF909A
:101C90009F908F907F906F905F904F9008954598A0
:101CA00080FF02C0419A01C0419881FF02C0439A5F
:101CB00001C0439882FF02C05C9A01C05C9883FF18
:101CC00002C05D9A01C05D98459A88E08A95F1F757
:101CD0000000459888E08A95F1F700000895CF93B9
:101CE000C82F599A449882958F700E944F0E8C2F5E
:101CF0008F700E944F0ECC7F29F086E791E001970C
:101D0000F1F704C080E899E20197F1F700C0000004
:101D1000CF910895CF93C82F599A449A82958F7086
:101D20000E944F0E8C2F8F700E944F0E80E792E022
:101D30000197F1F700C00000CF91089544982FE873
:101D400080ED93E0215080409040E1F700C000001A
:101D500083E00E944F0E81E19AE70197F1F700C0FE
:101D6000000083E00E944F0E81E19AE70197F1F7AE
:101D700000C0000083E00E944F0E81E19AE70197C6
:101D8000F1F700C0000082E00E944F0E81E19AE767
:101D90000197F1F700C0000088E20E946F0E88E012
:101DA0000E946F0E81E00E946F0E82E00E946F0E13
:101DB00086E00E946F0E8CE00E946F0E8AEA80938C
:101DC000A006089581E00E946F0E82E00C946F0ED1
:101DD0008F7060FD02C0805801C080540C946F0E5B
:101DE0000C948A0ECF93DF93EC018991882319F02C
:101DF0000E948A0EFACFDF91CF910895CF93DF939F
:101E0000CDB7DEB72A970FB6F894DEBF0FBECDBFB1
:101E10004AE0BE016F5F7F4F0E948317CE0101969B
:101E20000E94F20E2A960FB6F894DEBF0FBECDBF09
:101E3000DF91CF910895CF93DF93CDB7DEB72A9787
:101E40000FB6F894DEBF0FBECDBF2AE0AE014F5FE4
:101E50005F4F0E948E17CE0101960E94F20E2A96C5
:101E60000FB6F894DEBF0FBECDBFDF91CF910895BE
:101E7000CF93DF93FC018491EF012196882321F019
:101E80000E948A0EFE01F7CFDF91CF910895519AFB
:101E9000549A559A50981092D306089528E030E04D
:101EA00090E840E250E160E3782F792319F05BB9C4
:101EB0006BB902C01BB84BB9969521503109A1F7F7
:101EC0001BB80895CF93DF931F92CDB7DEB780E1A3
:101ED0008BB9198280E020E330E19981983051F08C
:101EE0002BB999B1880F9170892B3BB999819F5F6C
:101EF0009983F3CF0F90DF91CF91089582E38BB94F
:101F000082E18BB9089528E100002A95E9F701974D
:101F1000D1F708950895DF92EF92FF920F931F93E8
:101F2000CF93DF93082FC8E0D0E010E880E2F82ECE
:101F300090E1E92E20E3D22E802F812339F0EBB8F7
:101F400081E090E00E94830FDBB806C01BB881E0FF
:101F500090E00E94830FFBB81695219769F781E006
:101F600090E00E94830F1BB8DF91CF911F910F91DA
:101F7000FF90EF90DF9008959091D306911103C0E8
:101F80000E948B0F02C00E944E0F80E00895FF92C6
:101F90000F931F93CF93DF931F92CDB7DEB780E1EE
:101FA0008BB981E090E00E94830F198210E000E37A
:101FB00080E1F82E8981883091F00BB981E090E0C2
:101FC0000E94830F89B1110F8170182BFBB881E03B
:101FD00090E00E94830F89818F5F8983EBCF812FEF
:101FE0000F90DF91CF911F910F91FF9008958091F5
:101FF000D306811102C00C94C70F0C94620F82E3C8
:102000008BB981E090E00E94830F82E18BB981E07F
:1020100090E00C94830F81E08093D3060895109292
:10202000D30608950E94620F87FDFCCF0895CF92DA
:10203000DF92EF92FF92CF93C82F6A017B0100904D
:10204000D50604C0CC0CDD1CEE1CFF1C0A94D2F794
:102050008FEF0E944E0F8C2F80640E944E0F8F2DA9
:102060000E944E0F8E2D0E944E0F8D2D0E944E0FFE
:102070008C2D0E944E0F85E90E944E0F8FEF0E941B
:102080004E0F0E9412108093E00681508E3FC8F3DD
:10209000CF91FF90EF90DF90CF900895AB01BC01FE
:1020A0001092DE0681E10E9417100E94620F809359
:1020B000E1068E3FD1F70895CF92DF92EF92FF9223
:1020C000CF93DF93C82F6A017B018091DD068111D8
:1020D00013C08FEE8C0F823040F088EE8C0F823070
:1020E00020F080EE8C0F823038F489E0CC0CDD1CBF
:1020F000EE1CFF1C8A95D1F78FEF0E94BC0F8C2F2E
:1021000080640E94BC0F8F2D0E94BC0F8E2D0E94F8
:10211000BC0F8D2D0E94BC0F8C2D0E94BC0FC830AF
:1021200011F487E801C085E90E94BC0FF12C0E94E0
:10213000F70FD82F8F3F21F4FA94F110F8CF1DC07C
:1021400081111BC0CA33C9F40E94F70F1092D50643
:1021500086FF05C081E08093DD0682E006C0109214
:10216000DD0689E08093D50681E08093DF060E943A
:10217000F70F0E94F70F0E94F70F0E94F70F8D2FA5
:10218000DF91CF91FF90EF90DF90CF900895CF92A5
:10219000DF92EF92FF92CF93DF93C090D706D0905B
:1021A000D806E090D906F090DA06C616D706E806FB
:1021B000F906E1F16B017C016093D7067093D806B4
:1021C0008093D9069093DA0659988FEF0E94BC0F3E
:1021D0008FEF0E94BC0FB701A60181E10E945C1045
:1021E000811125C0C0E0D0E00E94F70F8E3F29F09A
:1021F0002197D1F7599A80E01AC0E12CF12CC091B7
:10220000DB06D091DC06CE0DDF1D0E94F70F888320
:102210008FEFE81AF80AE11482E0F80681F70E94CD
:10222000F70F0E94F70F0E94F70F599A81E0DF9194
:10223000CF91FF90EF90DF90CF900895CF93DF93F1
:10224000AB01BC0188E10E945C1081113DC059982E
:102250008EEF0E94BC0FC0E0D0E0E091DB06F09171
:10226000DC06EC0FFD1F80810E94BC0F2196C1157A
:1022700082E0D80791F78FEF0E94BC0F8FEF0E948A
:10228000BC0F0E94F70F982F9F71953079F4C0E032
:10229000D0E00E94F70F811103C02196D1F706C04C
:1022A000599A8FEF0E94BC0F599808C0599A0CC0D8
:1022B0009E012F5F3F4F2196C9F3E9010E94F70F5E
:1022C0008823B1F3599A81E0DF91CF910895AB0152
:1022D000BC0180E10C945C10CF92DF92EF92FF92F0
:1022E0000F931F93CF93DF931092D40685E08093D2
:1022F000D6060E94470F0E940F104B9998C080E1AC
:1023000085B9599A8FE097E2A0E0B0E08093D706B4
:102310009093D806A093D906B093DA06C4E60E943B
:10232000FF0FC150E1F75998CCE08FEF0E94BC0F2E
:10233000C150D9F700E018E040E050E0BA0180E079
:102340000E945C100150110931F415B8599A81E0CE
:102350008093D4066DC0813079F7CCE08FEF0E9476
:10236000BC0FC150D9F7C1E0D2E04AEA51E060E0C9
:1023700070E088E00E945C108A3A49F481E0809322
:10238000DF06C12CD12CE12C80E4F82E09C081306D
:10239000A9F3219751F71092DF06C12CD12C7601B9
:1023A000CCE08FEF0E94BC0FC150D9F701E012E0E2
:1023B00040E050E0BA0187E30E945C10B701A6013B
:1023C00089E20E945C100150110931F482E080938F
:1023D000D40615B8599A2CC08111EACF1092DD06A7
:1023E00089E08093D5068091DF06813081F040E05E
:1023F00050E0BA018BE30E945C1060E072E080E084
:1024000090E00E94671115B8599AC1E011C0C5E665
:10241000D0E08FEF0E94BC0F40E050E0BA018AE3A9
:102420000E945C10219719F38111F3CFE0CFC0E037
:102430008C2FDF91CF911F910F91FF90EF90DF9044
:10244000CF90089580E185B9089515B808950E9448
:10245000620F4B9902C08F3FD1F708958F929F92E0
:10246000AF92BF92CF92DF92EF92FF921F93CF93E2
:10247000DF9360E070E0CB010E94C710E091DB06C3
:10248000F091DC0680818D7F893E51F1DF01A25001
:10249000BE4F8D919C9185359A4A11F086E014C00B
:1024A000E254FE4F84818093E606608571858285C3
:1024B00093850E94C710E091DB06F091DC068081D5
:1024C0008D7F893E29F083E08093D40680E0A7C009
:1024D0008091E6068B3021F0863011F084E0F4CF55
:1024E000C091DB06D091DC06438554855093F006FD
:1024F0004093EF0615851093F50686859785C48C65
:10250000D58CE68CF78CC80ED91EE11CF11CC0924C
:10251000F106D092F206E092F306F092F406809172
:10252000E606863019F4A689B78902C0ACA1BDA120
:10253000208930E02A9FB0012B9F700D3A9F700DCB
:10254000112446015701860E971EA11CB11C8092D2
:10255000E2069092E306A092E406B092E506863089
:10256000D9F08CA59DA5AEA5BFA59C01AD012250BB
:10257000310941095109A12FB0E00E944217860E8E
:10258000971EA81EB91E8092E7069092E806A092B8
:10259000E906B092EA0624C00E943317C60ED71E81
:1025A000E81EF91EC092E706D092E806E092E9061E
:1025B000F092EA068189928935E0880F991F3A9551
:1025C000E1F7BA010E94FD16C60ED71EE11CF11CF0
:1025D000C092E206D092E306E092E406F092E506AD
:1025E000812F90E020E031E0320F8130910521F021
:1025F00096958795232FF7CF2093F6068091E706CF
:102600009091E806A091E906B091EA068093EB0666
:102610009093EC06A093ED06B093EE0681E0DF9177
:10262000CF911F91FF90EF90DF90CF90BF90AF9030
:102630009F908F9008954F925F926F927F928F92AA
:102640009F92AF92BF92CF92DF92EF92FF92CF9381
:102650002091E606263039F488248A94982CA12CFF
:10266000B12C21E007C088248A94982CA82C2FE054
:10267000B22E22E004C0660F771F881F991F2A958B
:10268000D2F72091EF063091F00640E050E00E9432
:1026900011176B017C018091F1069091F206A091D7
:1026A000F306B091F40629013A01480E591E6A1E3C
:1026B0007B1ECAE0C301B2010E94C710882311F03B
:1026C000C150C1F78091DB069091DC06FC01EC0D56
:1026D000FD1D80819181A281B381BC01CD01682162
:1026E00079218A219B21CF91FF90EF90DF90CF90AD
:1026F000BF90AF909F908F907F906F905F904F9022
:1027000008954F925F926F927F928F929F92AF92B5
:10271000BF92CF92DF92EF92FF92CF9388EEC82EB6
:1027200083E0D82EE12CF12CC701B6010E941B13C7
:10273000611571058105910591F030EAC31636E8FF
:10274000D30631E0E306F10431F02FEFC21AD20ACA
:10275000E20AF20AE9CF60E070E0CB0151C040EA42
:10276000C41646E8D40641E0E406F10409F448C082
:102770008091E606863011F481E001C082E0A70175
:10278000960104C0220F331F441F551F8A95D2F7AC
:10279000CA01B9012091EF063091F00640E050E007
:1027A0000E9411172B013C018091F1069091F206D5
:1027B000A091F306B091F40649015A01880E991EC2
:1027C000AA1EBB1ECAE0C501B4010E94C71088231F
:1027D00011F0C150C1F78091DB069091DC06FC013D
:1027E000E40DF51D8FEF90E0A0E0B0E080839183D1
:1027F000A283B383C501B4010E941E11C701B601B3
:10280000CF91FF90EF90DF90CF90BF90AF909F90CF
:102810008F907F906F905F904F9008958F929F92CE
:10282000AF92BF92CF92DF92EF92FF920F931F93DE
:10283000CF93DF93EC0155E0CC0FDD1F5A95E1F704
:102840008E01012F112706952091F506622F70E069
:10285000C8010E94FD167B018091EB069091EC0669
:10286000A091ED06B091EE06672B09F44EC03091B1
:10287000E606363071F48090E7069090E806A09066
:10288000E906B090EA0688159905AA05BB0509F482
:102890005AC08090E2069090E306A090E406B090C3
:1028A000E506BC01CD01681979098A099B0930E068
:1028B00040E050E00E941117CA01B9016E5F7F4FDE
:1028C0008F4F9F4FC12CD12C0E941B132FEFC21A88
:1028D000D20ACE14DF04C1F79B01AC0122503109AA
:1028E00041095109A091F506B0E00E94421780907D
:1028F000E2069090E306A090E406B090E506DC01C5
:10290000CB01880D991DAA1DBB1D9801322F2227CE
:10291000330FC21BD30B4091F5064E9D90014F9D86
:10292000300D1124021B130BBC01CD01600F711F70
:10293000811D911D0E94C7108091DB069091DC06DD
:102940008C0F9D1F02C080E090E0DF91CF911F911E
:102950000F91FF90EF90DF90CF90BF90AF909F903E
:102960008F9008950F931F93FC01892B49F4809158
:10297000E7069091E806A091E906B091EA0639C011
:102980009385892F807194FF3DC02091E606828D4A
:10299000938D2B3079F424893589A90160E070E0AA
:1029A000BA0155274427A0E0B0E0842B952BA62B35
:1029B000B72B02C0A0E0B0E00097A105B105B9F2C5
:1029C0009C01AD012250310941095109A091F50640
:1029D000B0E00E9442170091E2061091E3062091B8
:1029E000E4063091E506DC01CB01800F911FA21FA8
:1029F000B31F8093EB069093EC06A093ED06B09383
:102A0000EE0681E01F910F910895FC01892BB1F032
:102A10008081882399F0853E89F08E3221F481816E
:102A20008E3219F00BC0853049F083858E3131F03C
:102A30008F3021F0883211F0CF01089580E090E0CE
:102A400008950E940E140C9405150000000000006B
:102A500000000000000000000000000008950000D9
:102A60000000000000002091D6062A95F1F7089595
:102A7000AF93AFB7AF93BF932F93A091D0062091A0
:102A8000CF06A22BA8B9A4EBA6BD20E0E8DFA09159
:102A9000CF06A8B9B091A406BB2341F02093D0067D
:102AA0002F91BF91AF91AFBFAF911895A0E3ABB994
:102AB000A9B1A170AA0F2A2FA0E1ABB9A0919506E8
:102AC000B09196061196A0939506B0939606A039FC
:102AD00089F4BC3079F4A1E0A093A406CF93C0E7B9
:102AE000A8E0B0E3BBB9B0E1BBB9AA95D1F7CA95EC
:102AF000B9F7CF912093D0062F91BF91AF91AFBF7F
:102B0000AF9118952F932FB72F9330995BC03F93B8
:102B100030919D0626B124702327E1F326B124705D
:102B200020939D0628E02A95F1F700004F935F93CC
:102B30006F937F938F93EF93FF9360E0E091A506EF
:102B4000F091A6063DE541E00DC050919D0676B19D
:102B500074707527E1F376B1747070939D067EE012
:102B60007A95F1F727E081E079B17470D9F400002B
:102B700000007BE17A95F1F776B1747050919D0673
:102B800070939D06752776957695880F872B2A95E5
:102B900059F7853D09F461E06030B9F28193315015
:102BA000404099F69F93AF93BF930E948903BF91D2
:102BB000AF919F91FF91EF918F917F916F915F9175
:102BC0004F913F912F912FBF2F91189581E00E9437
:102BD0001D018FEF80931901CBE80E94630C309B9D
:102BE00003C00E942512F9CF0E94221283B18F7078
:102BF00090910F01891759F180930F01883049F0A6
:102C0000843009F4F1C0823009F4F0C08130F9F465
:102C1000EFC082E09091A306890FE82FE770E69558
:102C2000F0E0E659FF4FE49180FFE295EF708E2FC0
:102C3000887009F0E86FE90FE53C08F0DBC0E0932D
:102C4000A3068091A3068C3810F0C093A306809150
:102C5000D106882309F4C1CF8091A406882309F402
:102C6000BCCFF894809197068F5F8F708093970602
:102C70002091A306269526952093D20690E030E178
:102C8000239F800D911D112490939F0680939E0693
:102C90000090F60602C0969587950A94E2F7909305
:102CA0001B0180931A01880F991F880F991FFC013F
:102CB000E955F94F80819181A281B3818093980673
:102CC00090939906A0939A06B0939B068091190160
:102CD0002817B9F02093190161E08AE00E94E80EFC
:102CE0008CE791E00E94380F8091D2068A3020F460
:102CF00087E091E00E94F20E8091D20690E00E945F
:102D0000FE0E8091970690911001981306C02091B5
:102D100015019091D206291741F190911101891363
:102D200006C0209116019091D2062917F1F09091DA
:102D30001201891306C0209117019091D20629171C
:102D4000A1F090911301891306C020911801909170
:102D5000D206291751F090911401891308C090915F
:102D600019018091D206981302C00E94210380911C
:102D7000980690919906A0919A06B0919B060297A9
:102D8000A109B109AC01BD010090F60604C0440FD1
:102D9000551F661F771F0A94D2F78091E206909123
:102DA000E306A091E406B091E506840F951FA61FE7
:102DB000B71F2091F50630E02150310940919E0661
:102DC00050919F0624233523BC01CD01620F731F50
:102DD000811D911D0E944E1010929606109295062C
:102DE0001092A4067894F9CE84E014CF86E012CF36
:102DF00080E010CF1092A30624CFAA1BBB1B51E189
:102E000007C0AA1FBB1FA617B70710F0A61BB70B5A
:102E1000881F991F5A95A9F780959095BC01CD01FF
:102E20000895A1E21A2EAA1BBB1BFD010DC0AA1F0B
:102E3000BB1FEE1FFF1FA217B307E407F50720F023
:102E4000A21BB30BE40BF50B661F771F881F991F9E
:102E50001A9469F760957095809590959B01AC01E7
:102E6000BD01CF010895A29FB001B39FC001A39FF0
:102E7000700D811D1124911DB29F700D811D1124B3
:102E8000911D08950E943317A59F900DB49F900D3A
:102E9000A49F800D911D11240895FB01DC01059074
:102EA0000D920020E1F70895FB01DC0141505040F4
:102EB00030F08D910590801919F40020B9F7881B26
:102EC000990B0895FB01DC0104C08D9101908019DC
:102ED00021F441505040C8F7881B990B0895DC013C
:102EE000FB014150504058F049F001900D920020F4
:102EF000C1F7E61BF70B3197CF0108951C920190A3
:102F00000020E9F7F6CFBB274A3031F4992322F4A9
:102F1000BDE2909581959F4F0C94C017BB272A3036
:102F200051F4992342F4BDE2909580957095619596
:102F30007F4F8F4F9F4F0C949E17BB27FA01A62FF0
:102F40006217710581059105330B30FB66F0AA27E6
:102F5000660F771F881F991FAA1FA21710F0A21BC8
:102F600063953850A9F7A05DAA3308F0A95DA19335
:102F700036F7B111B1931082CA010C94D917BB274F
:102F8000FB015527AA27880F991FAA1FA41710F025
:102F9000A41B83955051B9F7A05DAA3308F0A95D31
:102FA000A193009779F7B111B1931192CB010C94D1
:102FB000D917DC01FC01672F71917723E1F7329774
:102FC00004C07C916D9370836291AE17BF07C8F304
:102FD0000895F999FECF92BD81BDF89A992780B5E1
:102FE0000895262FF999FECF1FBA92BD81BD20BD4D
:102FF0000FB6F894FA9AF99A0FBE01960895F894CC
:02300000FFCF00
:0A300200FFFFFE5B005D00200000F0
:00000001FF
